{
  "contractName": "Base",
  "abi": [
    {
      "inputs": [
        {
          "internalType": "string",
          "name": "_name",
          "type": "string"
        },
        {
          "internalType": "string",
          "name": "_symbol",
          "type": "string"
        }
      ],
      "stateMutability": "nonpayable",
      "type": "constructor"
    },
    {
      "anonymous": false,
      "inputs": [
        {
          "indexed": true,
          "internalType": "address",
          "name": "owner",
          "type": "address"
        },
        {
          "indexed": true,
          "internalType": "address",
          "name": "approved",
          "type": "address"
        },
        {
          "indexed": true,
          "internalType": "uint256",
          "name": "tokenId",
          "type": "uint256"
        }
      ],
      "name": "Approval",
      "type": "event"
    },
    {
      "anonymous": false,
      "inputs": [
        {
          "indexed": true,
          "internalType": "address",
          "name": "owner",
          "type": "address"
        },
        {
          "indexed": true,
          "internalType": "address",
          "name": "operator",
          "type": "address"
        },
        {
          "indexed": false,
          "internalType": "bool",
          "name": "approved",
          "type": "bool"
        }
      ],
      "name": "ApprovalForAll",
      "type": "event"
    },
    {
      "anonymous": false,
      "inputs": [
        {
          "indexed": true,
          "internalType": "address",
          "name": "previousOwner",
          "type": "address"
        },
        {
          "indexed": true,
          "internalType": "address",
          "name": "newOwner",
          "type": "address"
        }
      ],
      "name": "OwnershipTransferred",
      "type": "event"
    },
    {
      "anonymous": false,
      "inputs": [
        {
          "indexed": true,
          "internalType": "address",
          "name": "from",
          "type": "address"
        },
        {
          "indexed": true,
          "internalType": "address",
          "name": "to",
          "type": "address"
        },
        {
          "indexed": true,
          "internalType": "uint256",
          "name": "tokenId",
          "type": "uint256"
        }
      ],
      "name": "Transfer",
      "type": "event"
    },
    {
      "inputs": [
        {
          "internalType": "address",
          "name": "to",
          "type": "address"
        },
        {
          "internalType": "uint256",
          "name": "tokenId",
          "type": "uint256"
        }
      ],
      "name": "approve",
      "outputs": [],
      "stateMutability": "nonpayable",
      "type": "function"
    },
    {
      "inputs": [
        {
          "internalType": "address",
          "name": "owner",
          "type": "address"
        }
      ],
      "name": "balanceOf",
      "outputs": [
        {
          "internalType": "uint256",
          "name": "",
          "type": "uint256"
        }
      ],
      "stateMutability": "view",
      "type": "function"
    },
    {
      "inputs": [
        {
          "internalType": "uint256",
          "name": "tokenId",
          "type": "uint256"
        }
      ],
      "name": "getApproved",
      "outputs": [
        {
          "internalType": "address",
          "name": "",
          "type": "address"
        }
      ],
      "stateMutability": "view",
      "type": "function"
    },
    {
      "inputs": [
        {
          "internalType": "address",
          "name": "owner",
          "type": "address"
        },
        {
          "internalType": "address",
          "name": "operator",
          "type": "address"
        }
      ],
      "name": "isApprovedForAll",
      "outputs": [
        {
          "internalType": "bool",
          "name": "",
          "type": "bool"
        }
      ],
      "stateMutability": "view",
      "type": "function"
    },
    {
      "inputs": [],
      "name": "name",
      "outputs": [
        {
          "internalType": "string",
          "name": "",
          "type": "string"
        }
      ],
      "stateMutability": "view",
      "type": "function"
    },
    {
      "inputs": [],
      "name": "owner",
      "outputs": [
        {
          "internalType": "address",
          "name": "",
          "type": "address"
        }
      ],
      "stateMutability": "view",
      "type": "function"
    },
    {
      "inputs": [
        {
          "internalType": "uint256",
          "name": "tokenId",
          "type": "uint256"
        }
      ],
      "name": "ownerOf",
      "outputs": [
        {
          "internalType": "address",
          "name": "",
          "type": "address"
        }
      ],
      "stateMutability": "view",
      "type": "function"
    },
    {
      "inputs": [],
      "name": "renounceOwnership",
      "outputs": [],
      "stateMutability": "nonpayable",
      "type": "function"
    },
    {
      "inputs": [
        {
          "internalType": "address",
          "name": "from",
          "type": "address"
        },
        {
          "internalType": "address",
          "name": "to",
          "type": "address"
        },
        {
          "internalType": "uint256",
          "name": "tokenId",
          "type": "uint256"
        }
      ],
      "name": "safeTransferFrom",
      "outputs": [],
      "stateMutability": "nonpayable",
      "type": "function"
    },
    {
      "inputs": [
        {
          "internalType": "address",
          "name": "from",
          "type": "address"
        },
        {
          "internalType": "address",
          "name": "to",
          "type": "address"
        },
        {
          "internalType": "uint256",
          "name": "tokenId",
          "type": "uint256"
        },
        {
          "internalType": "bytes",
          "name": "_data",
          "type": "bytes"
        }
      ],
      "name": "safeTransferFrom",
      "outputs": [],
      "stateMutability": "nonpayable",
      "type": "function"
    },
    {
      "inputs": [
        {
          "internalType": "address",
          "name": "operator",
          "type": "address"
        },
        {
          "internalType": "bool",
          "name": "approved",
          "type": "bool"
        }
      ],
      "name": "setApprovalForAll",
      "outputs": [],
      "stateMutability": "nonpayable",
      "type": "function"
    },
    {
      "inputs": [
        {
          "internalType": "bytes4",
          "name": "interfaceId",
          "type": "bytes4"
        }
      ],
      "name": "supportsInterface",
      "outputs": [
        {
          "internalType": "bool",
          "name": "",
          "type": "bool"
        }
      ],
      "stateMutability": "view",
      "type": "function"
    },
    {
      "inputs": [],
      "name": "symbol",
      "outputs": [
        {
          "internalType": "string",
          "name": "",
          "type": "string"
        }
      ],
      "stateMutability": "view",
      "type": "function"
    },
    {
      "inputs": [
        {
          "internalType": "address",
          "name": "from",
          "type": "address"
        },
        {
          "internalType": "address",
          "name": "to",
          "type": "address"
        },
        {
          "internalType": "uint256",
          "name": "tokenId",
          "type": "uint256"
        }
      ],
      "name": "transferFrom",
      "outputs": [],
      "stateMutability": "nonpayable",
      "type": "function"
    },
    {
      "inputs": [
        {
          "internalType": "address",
          "name": "newOwner",
          "type": "address"
        }
      ],
      "name": "transferOwnership",
      "outputs": [],
      "stateMutability": "nonpayable",
      "type": "function"
    },
    {
      "inputs": [
        {
          "internalType": "string",
          "name": "baseURI_",
          "type": "string"
        }
      ],
      "name": "setBaseURI",
      "outputs": [],
      "stateMutability": "nonpayable",
      "type": "function"
    },
    {
      "inputs": [
        {
          "internalType": "uint256",
          "name": "tokenId",
          "type": "uint256"
        }
      ],
      "name": "tokenURI",
      "outputs": [
        {
          "internalType": "string",
          "name": "",
          "type": "string"
        }
      ],
      "stateMutability": "view",
      "type": "function"
    },
    {
      "inputs": [
        {
          "internalType": "address",
          "name": "_to",
          "type": "address"
        },
        {
          "internalType": "uint256",
          "name": "_tokenId",
          "type": "uint256"
        },
        {
          "internalType": "string",
          "name": "tokenURI_",
          "type": "string"
        }
      ],
      "name": "mint",
      "outputs": [],
      "stateMutability": "nonpayable",
      "type": "function"
    }
  ],
  "bytecode": "0x60806040523480156200001157600080fd5b50604051620034be380380620034be833981810160405281019062000037919062000250565b81818160009080519060200190620000519291906200012e565b5080600190805190602001906200006a9291906200012e565b50505060006200007f6200012660201b60201c565b905080600660006101000a81548173ffffffffffffffffffffffffffffffffffffffff021916908373ffffffffffffffffffffffffffffffffffffffff1602179055508073ffffffffffffffffffffffffffffffffffffffff16600073ffffffffffffffffffffffffffffffffffffffff167f8be0079c531659141344cd1fd0a4f28419497f9722a3daafe3b4186f6b6457e060405160405180910390a350505062000433565b600033905090565b8280546200013c9062000358565b90600052602060002090601f016020900481019282620001605760008555620001ac565b82601f106200017b57805160ff1916838001178555620001ac565b82800160010185558215620001ac579182015b82811115620001ab5782518255916020019190600101906200018e565b5b509050620001bb9190620001bf565b5090565b5b80821115620001da576000816000905550600101620001c0565b5090565b6000620001f5620001ef84620002ec565b620002c3565b9050828152602081018484840111156200020e57600080fd5b6200021b84828562000322565b509392505050565b600082601f8301126200023557600080fd5b815162000247848260208601620001de565b91505092915050565b600080604083850312156200026457600080fd5b600083015167ffffffffffffffff8111156200027f57600080fd5b6200028d8582860162000223565b925050602083015167ffffffffffffffff811115620002ab57600080fd5b620002b98582860162000223565b9150509250929050565b6000620002cf620002e2565b9050620002dd82826200038e565b919050565b6000604051905090565b600067ffffffffffffffff8211156200030a5762000309620003f3565b5b620003158262000422565b9050602081019050919050565b60005b838110156200034257808201518184015260208101905062000325565b8381111562000352576000848401525b50505050565b600060028204905060018216806200037157607f821691505b60208210811415620003885762000387620003c4565b5b50919050565b620003998262000422565b810181811067ffffffffffffffff82111715620003bb57620003ba620003f3565b5b80604052505050565b7f4e487b7100000000000000000000000000000000000000000000000000000000600052602260045260246000fd5b7f4e487b7100000000000000000000000000000000000000000000000000000000600052604160045260246000fd5b6000601f19601f8301169050919050565b61307b80620004436000396000f3fe608060405234801561001057600080fd5b50600436106101165760003560e01c8063715018a6116100a2578063b88d4fde11610071578063b88d4fde146102cb578063c87b56dd146102e7578063d3fc986414610317578063e985e9c514610333578063f2fde38b1461036357610116565b8063715018a6146102695780638da5cb5b1461027357806395d89b4114610291578063a22cb465146102af57610116565b806323b872dd116100e957806323b872dd146101b557806342842e0e146101d157806355f804b3146101ed5780636352211e1461020957806370a082311461023957610116565b806301ffc9a71461011b57806306fdde031461014b578063081812fc14610169578063095ea7b314610199575b600080fd5b6101356004803603810190610130919061207b565b61037f565b60405161014291906124e5565b60405180910390f35b610153610461565b6040516101609190612500565b60405180910390f35b610183600480360381019061017e919061210e565b6104f3565b604051610190919061247e565b60405180910390f35b6101b360048036038101906101ae9190611fd8565b610578565b005b6101cf60048036038101906101ca9190611ed2565b610690565b005b6101eb60048036038101906101e69190611ed2565b6106f0565b005b610207600480360381019061020291906120cd565b610710565b005b610223600480360381019061021e919061210e565b6107a6565b604051610230919061247e565b60405180910390f35b610253600480360381019061024e9190611e6d565b610858565b6040516102609190612742565b60405180910390f35b610271610910565b005b61027b610a4d565b604051610288919061247e565b60405180910390f35b610299610a77565b6040516102a69190612500565b60405180910390f35b6102c960048036038101906102c49190611f9c565b610b09565b005b6102e560048036038101906102e09190611f21565b610c8a565b005b61030160048036038101906102fc919061210e565b610cec565b60405161030e9190612500565b60405180910390f35b610331600480360381019061032c9190612014565b610e5f565b005b61034d60048036038101906103489190611e96565b610ef4565b60405161035a91906124e5565b60405180910390f35b61037d60048036038101906103789190611e6d565b610f88565b005b60007f80ac58cd000000000000000000000000000000000000000000000000000000007bffffffffffffffffffffffffffffffffffffffffffffffffffffffff1916827bffffffffffffffffffffffffffffffffffffffffffffffffffffffff1916148061044a57507f5b5e139f000000000000000000000000000000000000000000000000000000007bffffffffffffffffffffffffffffffffffffffffffffffffffffffff1916827bffffffffffffffffffffffffffffffffffffffffffffffffffffffff1916145b8061045a575061045982611134565b5b9050919050565b60606000805461047090612998565b80601f016020809104026020016040519081016040528092919081815260200182805461049c90612998565b80156104e95780601f106104be576101008083540402835291602001916104e9565b820191906000526020600020905b8154815290600101906020018083116104cc57829003601f168201915b5050505050905090565b60006104fe8261119e565b61053d576040517f08c379a000000000000000000000000000000000000000000000000000000000815260040161053490612662565b60405180910390fd5b6004600083815260200190815260200160002060009054906101000a900473ffffffffffffffffffffffffffffffffffffffff169050919050565b6000610583826107a6565b90508073ffffffffffffffffffffffffffffffffffffffff168373ffffffffffffffffffffffffffffffffffffffff1614156105f4576040517f08c379a00000000000000000000000000000000000000000000000000000000081526004016105eb90612702565b60405180910390fd5b8073ffffffffffffffffffffffffffffffffffffffff1661061361120a565b73ffffffffffffffffffffffffffffffffffffffff16148061064257506106418161063c61120a565b610ef4565b5b610681576040517f08c379a0000000000000000000000000000000000000000000000000000000008152600401610678906125e2565b60405180910390fd5b61068b8383611212565b505050565b6106a161069b61120a565b826112cb565b6106e0576040517f08c379a00000000000000000000000000000000000000000000000000000000081526004016106d790612722565b60405180910390fd5b6106eb8383836113a9565b505050565b61070b83838360405180602001604052806000815250610c8a565b505050565b61071861120a565b73ffffffffffffffffffffffffffffffffffffffff16610736610a4d565b73ffffffffffffffffffffffffffffffffffffffff161461078c576040517f08c379a0000000000000000000000000000000000000000000000000000000008152600401610783906126a2565b60405180910390fd5b80600890805190602001906107a2929190611c91565b5050565b6000806002600084815260200190815260200160002060009054906101000a900473ffffffffffffffffffffffffffffffffffffffff169050600073ffffffffffffffffffffffffffffffffffffffff168173ffffffffffffffffffffffffffffffffffffffff16141561084f576040517f08c379a000000000000000000000000000000000000000000000000000000000815260040161084690612622565b60405180910390fd5b80915050919050565b60008073ffffffffffffffffffffffffffffffffffffffff168273ffffffffffffffffffffffffffffffffffffffff1614156108c9576040517f08c379a00000000000000000000000000000000000000000000000000000000081526004016108c090612602565b60405180910390fd5b600360008373ffffffffffffffffffffffffffffffffffffffff1673ffffffffffffffffffffffffffffffffffffffff168152602001908152602001600020549050919050565b61091861120a565b73ffffffffffffffffffffffffffffffffffffffff16610936610a4d565b73ffffffffffffffffffffffffffffffffffffffff161461098c576040517f08c379a0000000000000000000000000000000000000000000000000000000008152600401610983906126a2565b60405180910390fd5b600073ffffffffffffffffffffffffffffffffffffffff16600660009054906101000a900473ffffffffffffffffffffffffffffffffffffffff1673ffffffffffffffffffffffffffffffffffffffff167f8be0079c531659141344cd1fd0a4f28419497f9722a3daafe3b4186f6b6457e060405160405180910390a36000600660006101000a81548173ffffffffffffffffffffffffffffffffffffffff021916908373ffffffffffffffffffffffffffffffffffffffff160217905550565b6000600660009054906101000a900473ffffffffffffffffffffffffffffffffffffffff16905090565b606060018054610a8690612998565b80601f0160208091040260200160405190810160405280929190818152602001828054610ab290612998565b8015610aff5780601f10610ad457610100808354040283529160200191610aff565b820191906000526020600020905b815481529060010190602001808311610ae257829003601f168201915b5050505050905090565b610b1161120a565b73ffffffffffffffffffffffffffffffffffffffff168273ffffffffffffffffffffffffffffffffffffffff161415610b7f576040517f08c379a0000000000000000000000000000000000000000000000000000000008152600401610b76906125a2565b60405180910390fd5b8060056000610b8c61120a565b73ffffffffffffffffffffffffffffffffffffffff1673ffffffffffffffffffffffffffffffffffffffff16815260200190815260200160002060008473ffffffffffffffffffffffffffffffffffffffff1673ffffffffffffffffffffffffffffffffffffffff16815260200190815260200160002060006101000a81548160ff0219169083151502179055508173ffffffffffffffffffffffffffffffffffffffff16610c3961120a565b73ffffffffffffffffffffffffffffffffffffffff167f17307eab39ab6107e8899845ad3d59bd9653f200f220920489ca2b5937696c3183604051610c7e91906124e5565b60405180910390a35050565b610c9b610c9561120a565b836112cb565b610cda576040517f08c379a0000000000000000000000000000000000000000000000000000000008152600401610cd190612722565b60405180910390fd5b610ce684848484611605565b50505050565b6060610cf78261119e565b610d36576040517f08c379a0000000000000000000000000000000000000000000000000000000008152600401610d2d906126e2565b60405180910390fd5b6000600760008481526020019081526020016000208054610d5690612998565b80601f0160208091040260200160405190810160405280929190818152602001828054610d8290612998565b8015610dcf5780601f10610da457610100808354040283529160200191610dcf565b820191906000526020600020905b815481529060010190602001808311610db257829003601f168201915b505050505090506000610de0611661565b9050600081511415610df6578192505050610e5a565b600082511115610e2b578082604051602001610e1392919061245a565b60405160208183030381529060405292505050610e5a565b80610e35856116f3565b604051602001610e4692919061245a565b604051602081830303815290604052925050505b919050565b610e6761120a565b73ffffffffffffffffffffffffffffffffffffffff16610e85610a4d565b73ffffffffffffffffffffffffffffffffffffffff1614610edb576040517f08c379a0000000000000000000000000000000000000000000000000000000008152600401610ed2906126a2565b60405180910390fd5b610ee583836118a0565b610eef8282611a6e565b505050565b6000600560008473ffffffffffffffffffffffffffffffffffffffff1673ffffffffffffffffffffffffffffffffffffffff16815260200190815260200160002060008373ffffffffffffffffffffffffffffffffffffffff1673ffffffffffffffffffffffffffffffffffffffff16815260200190815260200160002060009054906101000a900460ff16905092915050565b610f9061120a565b73ffffffffffffffffffffffffffffffffffffffff16610fae610a4d565b73ffffffffffffffffffffffffffffffffffffffff1614611004576040517f08c379a0000000000000000000000000000000000000000000000000000000008152600401610ffb906126a2565b60405180910390fd5b600073ffffffffffffffffffffffffffffffffffffffff168173ffffffffffffffffffffffffffffffffffffffff161415611074576040517f08c379a000000000000000000000000000000000000000000000000000000000815260040161106b90612542565b60405180910390fd5b8073ffffffffffffffffffffffffffffffffffffffff16600660009054906101000a900473ffffffffffffffffffffffffffffffffffffffff1673ffffffffffffffffffffffffffffffffffffffff167f8be0079c531659141344cd1fd0a4f28419497f9722a3daafe3b4186f6b6457e060405160405180910390a380600660006101000a81548173ffffffffffffffffffffffffffffffffffffffff021916908373ffffffffffffffffffffffffffffffffffffffff16021790555050565b60007f01ffc9a7000000000000000000000000000000000000000000000000000000007bffffffffffffffffffffffffffffffffffffffffffffffffffffffff1916827bffffffffffffffffffffffffffffffffffffffffffffffffffffffff1916149050919050565b60008073ffffffffffffffffffffffffffffffffffffffff166002600084815260200190815260200160002060009054906101000a900473ffffffffffffffffffffffffffffffffffffffff1673ffffffffffffffffffffffffffffffffffffffff1614159050919050565b600033905090565b816004600083815260200190815260200160002060006101000a81548173ffffffffffffffffffffffffffffffffffffffff021916908373ffffffffffffffffffffffffffffffffffffffff160217905550808273ffffffffffffffffffffffffffffffffffffffff16611285836107a6565b73ffffffffffffffffffffffffffffffffffffffff167f8c5be1e5ebec7d5bd14f71427d1e84f3dd0314c0f7b2291e5b200ac8c7c3b92560405160405180910390a45050565b60006112d68261119e565b611315576040517f08c379a000000000000000000000000000000000000000000000000000000000815260040161130c906125c2565b60405180910390fd5b6000611320836107a6565b90508073ffffffffffffffffffffffffffffffffffffffff168473ffffffffffffffffffffffffffffffffffffffff16148061138f57508373ffffffffffffffffffffffffffffffffffffffff16611377846104f3565b73ffffffffffffffffffffffffffffffffffffffff16145b806113a0575061139f8185610ef4565b5b91505092915050565b8273ffffffffffffffffffffffffffffffffffffffff166113c9826107a6565b73ffffffffffffffffffffffffffffffffffffffff161461141f576040517f08c379a0000000000000000000000000000000000000000000000000000000008152600401611416906126c2565b60405180910390fd5b600073ffffffffffffffffffffffffffffffffffffffff168273ffffffffffffffffffffffffffffffffffffffff16141561148f576040517f08c379a000000000000000000000000000000000000000000000000000000000815260040161148690612582565b60405180910390fd5b61149a838383611ae2565b6114a5600082611212565b6001600360008573ffffffffffffffffffffffffffffffffffffffff1673ffffffffffffffffffffffffffffffffffffffff16815260200190815260200160002060008282546114f591906128ae565b925050819055506001600360008473ffffffffffffffffffffffffffffffffffffffff1673ffffffffffffffffffffffffffffffffffffffff168152602001908152602001600020600082825461154c9190612827565b92505081905550816002600083815260200190815260200160002060006101000a81548173ffffffffffffffffffffffffffffffffffffffff021916908373ffffffffffffffffffffffffffffffffffffffff160217905550808273ffffffffffffffffffffffffffffffffffffffff168473ffffffffffffffffffffffffffffffffffffffff167fddf252ad1be2c89b69c2b068fc378daa952ba7f163c4a11628f55a4df523b3ef60405160405180910390a4505050565b6116108484846113a9565b61161c84848484611ae7565b61165b576040517f08c379a000000000000000000000000000000000000000000000000000000000815260040161165290612522565b60405180910390fd5b50505050565b60606008805461167090612998565b80601f016020809104026020016040519081016040528092919081815260200182805461169c90612998565b80156116e95780601f106116be576101008083540402835291602001916116e9565b820191906000526020600020905b8154815290600101906020018083116116cc57829003601f168201915b5050505050905090565b6060600082141561173b576040518060400160405280600181526020017f3000000000000000000000000000000000000000000000000000000000000000815250905061189b565b600082905060005b6000821461176d578080611756906129fb565b915050600a82611766919061287d565b9150611743565b60008167ffffffffffffffff8111156117af577f4e487b7100000000000000000000000000000000000000000000000000000000600052604160045260246000fd5b6040519080825280601f01601f1916602001820160405280156117e15781602001600182028036833780820191505090505b5090505b60008514611894576001826117fa91906128ae565b9150600a856118099190612a44565b60306118159190612827565b60f81b818381518110611851577f4e487b7100000000000000000000000000000000000000000000000000000000600052603260045260246000fd5b60200101907effffffffffffffffffffffffffffffffffffffffffffffffffffffffffffff1916908160001a905350600a8561188d919061287d565b94506117e5565b8093505050505b919050565b600073ffffffffffffffffffffffffffffffffffffffff168273ffffffffffffffffffffffffffffffffffffffff161415611910576040517f08c379a000000000000000000000000000000000000000000000000000000000815260040161190790612642565b60405180910390fd5b6119198161119e565b15611959576040517f08c379a000000000000000000000000000000000000000000000000000000000815260040161195090612562565b60405180910390fd5b61196560008383611ae2565b6001600360008473ffffffffffffffffffffffffffffffffffffffff1673ffffffffffffffffffffffffffffffffffffffff16815260200190815260200160002060008282546119b59190612827565b92505081905550816002600083815260200190815260200160002060006101000a81548173ffffffffffffffffffffffffffffffffffffffff021916908373ffffffffffffffffffffffffffffffffffffffff160217905550808273ffffffffffffffffffffffffffffffffffffffff16600073ffffffffffffffffffffffffffffffffffffffff167fddf252ad1be2c89b69c2b068fc378daa952ba7f163c4a11628f55a4df523b3ef60405160405180910390a45050565b611a778261119e565b611ab6576040517f08c379a0000000000000000000000000000000000000000000000000000000008152600401611aad90612682565b60405180910390fd5b80600760008481526020019081526020016000209080519060200190611add929190611c91565b505050565b505050565b6000611b088473ffffffffffffffffffffffffffffffffffffffff16611c7e565b15611c71578373ffffffffffffffffffffffffffffffffffffffff1663150b7a02611b3161120a565b8786866040518563ffffffff1660e01b8152600401611b539493929190612499565b602060405180830381600087803b158015611b6d57600080fd5b505af1925050508015611b9e57506040513d601f19601f82011682018060405250810190611b9b91906120a4565b60015b611c21573d8060008114611bce576040519150601f19603f3d011682016040523d82523d6000602084013e611bd3565b606091505b50600081511415611c19576040517f08c379a0000000000000000000000000000000000000000000000000000000008152600401611c1090612522565b60405180910390fd5b805181602001fd5b63150b7a0260e01b7bffffffffffffffffffffffffffffffffffffffffffffffffffffffff1916817bffffffffffffffffffffffffffffffffffffffffffffffffffffffff191614915050611c76565b600190505b949350505050565b600080823b905060008111915050919050565b828054611c9d90612998565b90600052602060002090601f016020900481019282611cbf5760008555611d06565b82601f10611cd857805160ff1916838001178555611d06565b82800160010185558215611d06579182015b82811115611d05578251825591602001919060010190611cea565b5b509050611d139190611d17565b5090565b5b80821115611d30576000816000905550600101611d18565b5090565b6000611d47611d4284612782565b61275d565b905082815260208101848484011115611d5f57600080fd5b611d6a848285612956565b509392505050565b6000611d85611d80846127b3565b61275d565b905082815260208101848484011115611d9d57600080fd5b611da8848285612956565b509392505050565b600081359050611dbf81612fe9565b92915050565b600081359050611dd481613000565b92915050565b600081359050611de981613017565b92915050565b600081519050611dfe81613017565b92915050565b600082601f830112611e1557600080fd5b8135611e25848260208601611d34565b91505092915050565b600082601f830112611e3f57600080fd5b8135611e4f848260208601611d72565b91505092915050565b600081359050611e678161302e565b92915050565b600060208284031215611e7f57600080fd5b6000611e8d84828501611db0565b91505092915050565b60008060408385031215611ea957600080fd5b6000611eb785828601611db0565b9250506020611ec885828601611db0565b9150509250929050565b600080600060608486031215611ee757600080fd5b6000611ef586828701611db0565b9350506020611f0686828701611db0565b9250506040611f1786828701611e58565b9150509250925092565b60008060008060808587031215611f3757600080fd5b6000611f4587828801611db0565b9450506020611f5687828801611db0565b9350506040611f6787828801611e58565b925050606085013567ffffffffffffffff811115611f8457600080fd5b611f9087828801611e04565b91505092959194509250565b60008060408385031215611faf57600080fd5b6000611fbd85828601611db0565b9250506020611fce85828601611dc5565b9150509250929050565b60008060408385031215611feb57600080fd5b6000611ff985828601611db0565b925050602061200a85828601611e58565b9150509250929050565b60008060006060848603121561202957600080fd5b600061203786828701611db0565b935050602061204886828701611e58565b925050604084013567ffffffffffffffff81111561206557600080fd5b61207186828701611e2e565b9150509250925092565b60006020828403121561208d57600080fd5b600061209b84828501611dda565b91505092915050565b6000602082840312156120b657600080fd5b60006120c484828501611def565b91505092915050565b6000602082840312156120df57600080fd5b600082013567ffffffffffffffff8111156120f957600080fd5b61210584828501611e2e565b91505092915050565b60006020828403121561212057600080fd5b600061212e84828501611e58565b91505092915050565b612140816128e2565b82525050565b61214f816128f4565b82525050565b6000612160826127e4565b61216a81856127fa565b935061217a818560208601612965565b61218381612b31565b840191505092915050565b6000612199826127ef565b6121a3818561280b565b93506121b3818560208601612965565b6121bc81612b31565b840191505092915050565b60006121d2826127ef565b6121dc818561281c565b93506121ec818560208601612965565b80840191505092915050565b600061220560328361280b565b915061221082612b42565b604082019050919050565b600061222860268361280b565b915061223382612b91565b604082019050919050565b600061224b601c8361280b565b915061225682612be0565b602082019050919050565b600061226e60248361280b565b915061227982612c09565b604082019050919050565b600061229160198361280b565b915061229c82612c58565b602082019050919050565b60006122b4602c8361280b565b91506122bf82612c81565b604082019050919050565b60006122d760388361280b565b91506122e282612cd0565b604082019050919050565b60006122fa602a8361280b565b915061230582612d1f565b604082019050919050565b600061231d60298361280b565b915061232882612d6e565b604082019050919050565b600061234060208361280b565b915061234b82612dbd565b602082019050919050565b6000612363602c8361280b565b915061236e82612de6565b604082019050919050565b6000612386602c8361280b565b915061239182612e35565b604082019050919050565b60006123a960208361280b565b91506123b482612e84565b602082019050919050565b60006123cc60298361280b565b91506123d782612ead565b604082019050919050565b60006123ef602f8361280b565b91506123fa82612efc565b604082019050919050565b600061241260218361280b565b915061241d82612f4b565b604082019050919050565b600061243560318361280b565b915061244082612f9a565b604082019050919050565b6124548161294c565b82525050565b600061246682856121c7565b915061247282846121c7565b91508190509392505050565b60006020820190506124936000830184612137565b92915050565b60006080820190506124ae6000830187612137565b6124bb6020830186612137565b6124c8604083018561244b565b81810360608301526124da8184612155565b905095945050505050565b60006020820190506124fa6000830184612146565b92915050565b6000602082019050818103600083015261251a818461218e565b905092915050565b6000602082019050818103600083015261253b816121f8565b9050919050565b6000602082019050818103600083015261255b8161221b565b9050919050565b6000602082019050818103600083015261257b8161223e565b9050919050565b6000602082019050818103600083015261259b81612261565b9050919050565b600060208201905081810360008301526125bb81612284565b9050919050565b600060208201905081810360008301526125db816122a7565b9050919050565b600060208201905081810360008301526125fb816122ca565b9050919050565b6000602082019050818103600083015261261b816122ed565b9050919050565b6000602082019050818103600083015261263b81612310565b9050919050565b6000602082019050818103600083015261265b81612333565b9050919050565b6000602082019050818103600083015261267b81612356565b9050919050565b6000602082019050818103600083015261269b81612379565b9050919050565b600060208201905081810360008301526126bb8161239c565b9050919050565b600060208201905081810360008301526126db816123bf565b9050919050565b600060208201905081810360008301526126fb816123e2565b9050919050565b6000602082019050818103600083015261271b81612405565b9050919050565b6000602082019050818103600083015261273b81612428565b9050919050565b6000602082019050612757600083018461244b565b92915050565b6000612767612778565b905061277382826129ca565b919050565b6000604051905090565b600067ffffffffffffffff82111561279d5761279c612b02565b5b6127a682612b31565b9050602081019050919050565b600067ffffffffffffffff8211156127ce576127cd612b02565b5b6127d782612b31565b9050602081019050919050565b600081519050919050565b600081519050919050565b600082825260208201905092915050565b600082825260208201905092915050565b600081905092915050565b60006128328261294c565b915061283d8361294c565b9250827fffffffffffffffffffffffffffffffffffffffffffffffffffffffffffffffff0382111561287257612871612a75565b5b828201905092915050565b60006128888261294c565b91506128938361294c565b9250826128a3576128a2612aa4565b5b828204905092915050565b60006128b98261294c565b91506128c48361294c565b9250828210156128d7576128d6612a75565b5b828203905092915050565b60006128ed8261292c565b9050919050565b60008115159050919050565b60007fffffffff0000000000000000000000000000000000000000000000000000000082169050919050565b600073ffffffffffffffffffffffffffffffffffffffff82169050919050565b6000819050919050565b82818337600083830152505050565b60005b83811015612983578082015181840152602081019050612968565b83811115612992576000848401525b50505050565b600060028204905060018216806129b057607f821691505b602082108114156129c4576129c3612ad3565b5b50919050565b6129d382612b31565b810181811067ffffffffffffffff821117156129f2576129f1612b02565b5b80604052505050565b6000612a068261294c565b91507fffffffffffffffffffffffffffffffffffffffffffffffffffffffffffffffff821415612a3957612a38612a75565b5b600182019050919050565b6000612a4f8261294c565b9150612a5a8361294c565b925082612a6a57612a69612aa4565b5b828206905092915050565b7f4e487b7100000000000000000000000000000000000000000000000000000000600052601160045260246000fd5b7f4e487b7100000000000000000000000000000000000000000000000000000000600052601260045260246000fd5b7f4e487b7100000000000000000000000000000000000000000000000000000000600052602260045260246000fd5b7f4e487b7100000000000000000000000000000000000000000000000000000000600052604160045260246000fd5b6000601f19601f8301169050919050565b7f4552433732313a207472616e7366657220746f206e6f6e20455243373231526560008201527f63656976657220696d706c656d656e7465720000000000000000000000000000602082015250565b7f4f776e61626c653a206e6577206f776e657220697320746865207a65726f206160008201527f6464726573730000000000000000000000000000000000000000000000000000602082015250565b7f4552433732313a20746f6b656e20616c7265616479206d696e74656400000000600082015250565b7f4552433732313a207472616e7366657220746f20746865207a65726f2061646460008201527f7265737300000000000000000000000000000000000000000000000000000000602082015250565b7f4552433732313a20617070726f766520746f2063616c6c657200000000000000600082015250565b7f4552433732313a206f70657261746f7220717565727920666f72206e6f6e657860008201527f697374656e7420746f6b656e0000000000000000000000000000000000000000602082015250565b7f4552433732313a20617070726f76652063616c6c6572206973206e6f74206f7760008201527f6e6572206e6f7220617070726f76656420666f7220616c6c0000000000000000602082015250565b7f4552433732313a2062616c616e636520717565727920666f7220746865207a6560008201527f726f206164647265737300000000000000000000000000000000000000000000602082015250565b7f4552433732313a206f776e657220717565727920666f72206e6f6e657869737460008201527f656e7420746f6b656e0000000000000000000000000000000000000000000000602082015250565b7f4552433732313a206d696e7420746f20746865207a65726f2061646472657373600082015250565b7f4552433732313a20617070726f76656420717565727920666f72206e6f6e657860008201527f697374656e7420746f6b656e0000000000000000000000000000000000000000602082015250565b7f4552433732314d657461646174613a2055524920736574206f66206e6f6e657860008201527f697374656e7420746f6b656e0000000000000000000000000000000000000000602082015250565b7f4f776e61626c653a2063616c6c6572206973206e6f7420746865206f776e6572600082015250565b7f4552433732313a207472616e73666572206f6620746f6b656e2074686174206960008201527f73206e6f74206f776e0000000000000000000000000000000000000000000000602082015250565b7f4552433732314d657461646174613a2055524920717565727920666f72206e6f60008201527f6e6578697374656e7420746f6b656e0000000000000000000000000000000000602082015250565b7f4552433732313a20617070726f76616c20746f2063757272656e74206f776e6560008201527f7200000000000000000000000000000000000000000000000000000000000000602082015250565b7f4552433732313a207472616e736665722063616c6c6572206973206e6f74206f60008201527f776e6572206e6f7220617070726f766564000000000000000000000000000000602082015250565b612ff2816128e2565b8114612ffd57600080fd5b50565b613009816128f4565b811461301457600080fd5b50565b61302081612900565b811461302b57600080fd5b50565b6130378161294c565b811461304257600080fd5b5056fea26469706673582212201e7a3b095980625a0cae6b1571436cb2fbb18e4a29ceaa66112d674918ba0dce64736f6c63430008010033",
  "immutableReferences": {},
  "source": "pragma solidity ^0.8.1;\n\nimport \"@openzeppelin/contracts/access/Ownable.sol\";\nimport \"@openzeppelin/contracts/token/ERC721/ERC721.sol\";\n\ncontract Base is ERC721, Ownable {\n\n    using Strings for uint256;\n\n    mapping (uint256 => string) private _tokenURIs;\n    string private _baseURIextended;\n\n    constructor(string memory _name, string memory _symbol) ERC721(_name, _symbol)\n    {}\n\n    function setBaseURI(string memory baseURI_) external onlyOwner() {\n        _baseURIextended = baseURI_;\n    }\n\n    function _setTokenURI(uint256 tokenId, string memory _tokenURI) internal virtual {\n        require(_exists(tokenId), \"ERC721Metadata: URI set of nonexistent token\");\n        _tokenURIs[tokenId] = _tokenURI;\n    }\n\n    function _baseURI() internal view virtual override returns (string memory) {\n        return _baseURIextended;\n    }\n\n    function tokenURI(uint256 tokenId) public view virtual override returns (string memory) {\n        require(_exists(tokenId), \"ERC721Metadata: URI query for nonexistent token\");\n\n        string memory _tokenURI = _tokenURIs[tokenId];\n        string memory base = _baseURI();\n\n        if (bytes(base).length == 0) {\n            return _tokenURI;\n        }\n\n        if (bytes(_tokenURI).length > 0) {\n            return string(abi.encodePacked(base, _tokenURI));\n        }\n\n        return string(abi.encodePacked(base, tokenId.toString()));\n    }\n\n    function mint( address _to, uint256 _tokenId, string memory tokenURI_) external onlyOwner() {\n        _mint(_to, _tokenId);\n        _setTokenURI(_tokenId, tokenURI_);\n    }\n}\n",
  "sourcePath": "/home/wcode/Projects/university/ethereum/soccer-players-token/contracts/Base.sol",
  "compiler": {
    "name": "solc",
    "version": "0.8.1+commit.df193b15.Emscripten.clang"
  },
  "schemaVersion": "3.3.4",
  "updatedAt": "2021-03-24T00:35:06.121Z",
  "devdoc": {
    "kind": "dev",
    "methods": {
      "approve(address,uint256)": {
        "details": "See {IERC721-approve}."
      },
      "balanceOf(address)": {
        "details": "See {IERC721-balanceOf}."
      },
      "getApproved(uint256)": {
        "details": "See {IERC721-getApproved}."
      },
      "isApprovedForAll(address,address)": {
        "details": "See {IERC721-isApprovedForAll}."
      },
      "name()": {
        "details": "See {IERC721Metadata-name}."
      },
      "owner()": {
        "details": "Returns the address of the current owner."
      },
      "ownerOf(uint256)": {
        "details": "See {IERC721-ownerOf}."
      },
      "renounceOwnership()": {
        "details": "Leaves the contract without owner. It will not be possible to call `onlyOwner` functions anymore. Can only be called by the current owner. NOTE: Renouncing ownership will leave the contract without an owner, thereby removing any functionality that is only available to the owner."
      },
      "safeTransferFrom(address,address,uint256)": {
        "details": "See {IERC721-safeTransferFrom}."
      },
      "safeTransferFrom(address,address,uint256,bytes)": {
        "details": "See {IERC721-safeTransferFrom}."
      },
      "setApprovalForAll(address,bool)": {
        "details": "See {IERC721-setApprovalForAll}."
      },
      "supportsInterface(bytes4)": {
        "details": "See {IERC165-supportsInterface}."
      },
      "symbol()": {
        "details": "See {IERC721Metadata-symbol}."
      },
      "tokenURI(uint256)": {
        "details": "See {IERC721Metadata-tokenURI}."
      },
      "transferFrom(address,address,uint256)": {
        "details": "See {IERC721-transferFrom}."
      },
      "transferOwnership(address)": {
        "details": "Transfers ownership of the contract to a new account (`newOwner`). Can only be called by the current owner."
      }
    },
    "version": 1
  },
  "userdoc": {
    "kind": "user",
    "methods": {},
    "version": 1
  }
}