{
  "contractName": "BaseERC721",
  "abi": [
    {
      "inputs": [
        {
          "internalType": "string",
          "name": "_name",
          "type": "string"
        },
        {
          "internalType": "string",
          "name": "_symbol",
          "type": "string"
        }
      ],
      "stateMutability": "nonpayable",
      "type": "constructor"
    },
    {
      "anonymous": false,
      "inputs": [
        {
          "indexed": true,
          "internalType": "address",
          "name": "owner",
          "type": "address"
        },
        {
          "indexed": true,
          "internalType": "address",
          "name": "approved",
          "type": "address"
        },
        {
          "indexed": true,
          "internalType": "uint256",
          "name": "tokenId",
          "type": "uint256"
        }
      ],
      "name": "Approval",
      "type": "event"
    },
    {
      "anonymous": false,
      "inputs": [
        {
          "indexed": true,
          "internalType": "address",
          "name": "owner",
          "type": "address"
        },
        {
          "indexed": true,
          "internalType": "address",
          "name": "operator",
          "type": "address"
        },
        {
          "indexed": false,
          "internalType": "bool",
          "name": "approved",
          "type": "bool"
        }
      ],
      "name": "ApprovalForAll",
      "type": "event"
    },
    {
      "anonymous": false,
      "inputs": [
        {
          "indexed": true,
          "internalType": "address",
          "name": "previousOwner",
          "type": "address"
        },
        {
          "indexed": true,
          "internalType": "address",
          "name": "newOwner",
          "type": "address"
        }
      ],
      "name": "OwnershipTransferred",
      "type": "event"
    },
    {
      "anonymous": false,
      "inputs": [
        {
          "indexed": true,
          "internalType": "address",
          "name": "from",
          "type": "address"
        },
        {
          "indexed": true,
          "internalType": "address",
          "name": "to",
          "type": "address"
        },
        {
          "indexed": true,
          "internalType": "uint256",
          "name": "tokenId",
          "type": "uint256"
        }
      ],
      "name": "Transfer",
      "type": "event"
    },
    {
      "inputs": [
        {
          "internalType": "address",
          "name": "to",
          "type": "address"
        },
        {
          "internalType": "uint256",
          "name": "tokenId",
          "type": "uint256"
        }
      ],
      "name": "approve",
      "outputs": [],
      "stateMutability": "nonpayable",
      "type": "function"
    },
    {
      "inputs": [
        {
          "internalType": "address",
          "name": "owner",
          "type": "address"
        }
      ],
      "name": "balanceOf",
      "outputs": [
        {
          "internalType": "uint256",
          "name": "",
          "type": "uint256"
        }
      ],
      "stateMutability": "view",
      "type": "function"
    },
    {
      "inputs": [
        {
          "internalType": "uint256",
          "name": "tokenId",
          "type": "uint256"
        }
      ],
      "name": "getApproved",
      "outputs": [
        {
          "internalType": "address",
          "name": "",
          "type": "address"
        }
      ],
      "stateMutability": "view",
      "type": "function"
    },
    {
      "inputs": [
        {
          "internalType": "address",
          "name": "owner",
          "type": "address"
        },
        {
          "internalType": "address",
          "name": "operator",
          "type": "address"
        }
      ],
      "name": "isApprovedForAll",
      "outputs": [
        {
          "internalType": "bool",
          "name": "",
          "type": "bool"
        }
      ],
      "stateMutability": "view",
      "type": "function"
    },
    {
      "inputs": [],
      "name": "name",
      "outputs": [
        {
          "internalType": "string",
          "name": "",
          "type": "string"
        }
      ],
      "stateMutability": "view",
      "type": "function"
    },
    {
      "inputs": [],
      "name": "owner",
      "outputs": [
        {
          "internalType": "address",
          "name": "",
          "type": "address"
        }
      ],
      "stateMutability": "view",
      "type": "function"
    },
    {
      "inputs": [
        {
          "internalType": "uint256",
          "name": "tokenId",
          "type": "uint256"
        }
      ],
      "name": "ownerOf",
      "outputs": [
        {
          "internalType": "address",
          "name": "",
          "type": "address"
        }
      ],
      "stateMutability": "view",
      "type": "function"
    },
    {
      "inputs": [],
      "name": "renounceOwnership",
      "outputs": [],
      "stateMutability": "nonpayable",
      "type": "function"
    },
    {
      "inputs": [
        {
          "internalType": "address",
          "name": "from",
          "type": "address"
        },
        {
          "internalType": "address",
          "name": "to",
          "type": "address"
        },
        {
          "internalType": "uint256",
          "name": "tokenId",
          "type": "uint256"
        }
      ],
      "name": "safeTransferFrom",
      "outputs": [],
      "stateMutability": "nonpayable",
      "type": "function"
    },
    {
      "inputs": [
        {
          "internalType": "address",
          "name": "from",
          "type": "address"
        },
        {
          "internalType": "address",
          "name": "to",
          "type": "address"
        },
        {
          "internalType": "uint256",
          "name": "tokenId",
          "type": "uint256"
        },
        {
          "internalType": "bytes",
          "name": "_data",
          "type": "bytes"
        }
      ],
      "name": "safeTransferFrom",
      "outputs": [],
      "stateMutability": "nonpayable",
      "type": "function"
    },
    {
      "inputs": [
        {
          "internalType": "address",
          "name": "operator",
          "type": "address"
        },
        {
          "internalType": "bool",
          "name": "approved",
          "type": "bool"
        }
      ],
      "name": "setApprovalForAll",
      "outputs": [],
      "stateMutability": "nonpayable",
      "type": "function"
    },
    {
      "inputs": [
        {
          "internalType": "bytes4",
          "name": "interfaceId",
          "type": "bytes4"
        }
      ],
      "name": "supportsInterface",
      "outputs": [
        {
          "internalType": "bool",
          "name": "",
          "type": "bool"
        }
      ],
      "stateMutability": "view",
      "type": "function"
    },
    {
      "inputs": [],
      "name": "symbol",
      "outputs": [
        {
          "internalType": "string",
          "name": "",
          "type": "string"
        }
      ],
      "stateMutability": "view",
      "type": "function"
    },
    {
      "inputs": [
        {
          "internalType": "address",
          "name": "from",
          "type": "address"
        },
        {
          "internalType": "address",
          "name": "to",
          "type": "address"
        },
        {
          "internalType": "uint256",
          "name": "tokenId",
          "type": "uint256"
        }
      ],
      "name": "transferFrom",
      "outputs": [],
      "stateMutability": "nonpayable",
      "type": "function"
    },
    {
      "inputs": [
        {
          "internalType": "address",
          "name": "newOwner",
          "type": "address"
        }
      ],
      "name": "transferOwnership",
      "outputs": [],
      "stateMutability": "nonpayable",
      "type": "function"
    },
    {
      "inputs": [
        {
          "internalType": "string",
          "name": "baseURI_",
          "type": "string"
        }
      ],
      "name": "setBaseURI",
      "outputs": [],
      "stateMutability": "nonpayable",
      "type": "function"
    },
    {
      "inputs": [
        {
          "internalType": "uint256",
          "name": "tokenId",
          "type": "uint256"
        }
      ],
      "name": "tokenURI",
      "outputs": [
        {
          "internalType": "string",
          "name": "",
          "type": "string"
        }
      ],
      "stateMutability": "view",
      "type": "function"
    }
  ],
  "bytecode": "0x60806040523480156200001157600080fd5b5060405162002fef38038062002fef833981810160405281019062000037919062000250565b81818160009080519060200190620000519291906200012e565b5080600190805190602001906200006a9291906200012e565b50505060006200007f6200012660201b60201c565b905080600660006101000a81548173ffffffffffffffffffffffffffffffffffffffff021916908373ffffffffffffffffffffffffffffffffffffffff1602179055508073ffffffffffffffffffffffffffffffffffffffff16600073ffffffffffffffffffffffffffffffffffffffff167f8be0079c531659141344cd1fd0a4f28419497f9722a3daafe3b4186f6b6457e060405160405180910390a350505062000433565b600033905090565b8280546200013c9062000358565b90600052602060002090601f016020900481019282620001605760008555620001ac565b82601f106200017b57805160ff1916838001178555620001ac565b82800160010185558215620001ac579182015b82811115620001ab5782518255916020019190600101906200018e565b5b509050620001bb9190620001bf565b5090565b5b80821115620001da576000816000905550600101620001c0565b5090565b6000620001f5620001ef84620002ec565b620002c3565b9050828152602081018484840111156200020e57600080fd5b6200021b84828562000322565b509392505050565b600082601f8301126200023557600080fd5b815162000247848260208601620001de565b91505092915050565b600080604083850312156200026457600080fd5b600083015167ffffffffffffffff8111156200027f57600080fd5b6200028d8582860162000223565b925050602083015167ffffffffffffffff811115620002ab57600080fd5b620002b98582860162000223565b9150509250929050565b6000620002cf620002e2565b9050620002dd82826200038e565b919050565b6000604051905090565b600067ffffffffffffffff8211156200030a5762000309620003f3565b5b620003158262000422565b9050602081019050919050565b60005b838110156200034257808201518184015260208101905062000325565b8381111562000352576000848401525b50505050565b600060028204905060018216806200037157607f821691505b60208210811415620003885762000387620003c4565b5b50919050565b620003998262000422565b810181811067ffffffffffffffff82111715620003bb57620003ba620003f3565b5b80604052505050565b7f4e487b7100000000000000000000000000000000000000000000000000000000600052602260045260246000fd5b7f4e487b7100000000000000000000000000000000000000000000000000000000600052604160045260246000fd5b6000601f19601f8301169050919050565b612bac80620004436000396000f3fe608060405234801561001057600080fd5b506004361061010b5760003560e01c806370a08231116100a2578063a22cb46511610071578063a22cb465146102a4578063b88d4fde146102c0578063c87b56dd146102dc578063e985e9c51461030c578063f2fde38b1461033c5761010b565b806370a082311461022e578063715018a61461025e5780638da5cb5b1461026857806395d89b41146102865761010b565b806323b872dd116100de57806323b872dd146101aa57806342842e0e146101c657806355f804b3146101e25780636352211e146101fe5761010b565b806301ffc9a71461011057806306fdde0314610140578063081812fc1461015e578063095ea7b31461018e575b600080fd5b61012a60048036038101906101259190611d16565b610358565b6040516101379190612117565b60405180910390f35b61014861043a565b6040516101559190612132565b60405180910390f35b61017860048036038101906101739190611da9565b6104cc565b60405161018591906120b0565b60405180910390f35b6101a860048036038101906101a39190611cda565b610551565b005b6101c460048036038101906101bf9190611bd4565b610669565b005b6101e060048036038101906101db9190611bd4565b6106c9565b005b6101fc60048036038101906101f79190611d68565b6106e9565b005b61021860048036038101906102139190611da9565b61077f565b60405161022591906120b0565b60405180910390f35b61024860048036038101906102439190611b6f565b610831565b6040516102559190612314565b60405180910390f35b6102666108e9565b005b610270610a26565b60405161027d91906120b0565b60405180910390f35b61028e610a50565b60405161029b9190612132565b60405180910390f35b6102be60048036038101906102b99190611c9e565b610ae2565b005b6102da60048036038101906102d59190611c23565b610c63565b005b6102f660048036038101906102f19190611da9565b610cc5565b6040516103039190612132565b60405180910390f35b61032660048036038101906103219190611b98565b610e38565b6040516103339190612117565b60405180910390f35b61035660048036038101906103519190611b6f565b610ecc565b005b60007f80ac58cd000000000000000000000000000000000000000000000000000000007bffffffffffffffffffffffffffffffffffffffffffffffffffffffff1916827bffffffffffffffffffffffffffffffffffffffffffffffffffffffff1916148061042357507f5b5e139f000000000000000000000000000000000000000000000000000000007bffffffffffffffffffffffffffffffffffffffffffffffffffffffff1916827bffffffffffffffffffffffffffffffffffffffffffffffffffffffff1916145b80610433575061043282611078565b5b9050919050565b6060600080546104499061256a565b80601f01602080910402602001604051908101604052809291908181526020018280546104759061256a565b80156104c25780601f10610497576101008083540402835291602001916104c2565b820191906000526020600020905b8154815290600101906020018083116104a557829003601f168201915b5050505050905090565b60006104d7826110e2565b610516576040517f08c379a000000000000000000000000000000000000000000000000000000000815260040161050d90612254565b60405180910390fd5b6004600083815260200190815260200160002060009054906101000a900473ffffffffffffffffffffffffffffffffffffffff169050919050565b600061055c8261077f565b90508073ffffffffffffffffffffffffffffffffffffffff168373ffffffffffffffffffffffffffffffffffffffff1614156105cd576040517f08c379a00000000000000000000000000000000000000000000000000000000081526004016105c4906122d4565b60405180910390fd5b8073ffffffffffffffffffffffffffffffffffffffff166105ec61114e565b73ffffffffffffffffffffffffffffffffffffffff16148061061b575061061a8161061561114e565b610e38565b5b61065a576040517f08c379a0000000000000000000000000000000000000000000000000000000008152600401610651906121f4565b60405180910390fd5b6106648383611156565b505050565b61067a61067461114e565b8261120f565b6106b9576040517f08c379a00000000000000000000000000000000000000000000000000000000081526004016106b0906122f4565b60405180910390fd5b6106c48383836112ed565b505050565b6106e483838360405180602001604052806000815250610c63565b505050565b6106f161114e565b73ffffffffffffffffffffffffffffffffffffffff1661070f610a26565b73ffffffffffffffffffffffffffffffffffffffff1614610765576040517f08c379a000000000000000000000000000000000000000000000000000000000815260040161075c90612274565b60405180910390fd5b806008908051906020019061077b929190611993565b5050565b6000806002600084815260200190815260200160002060009054906101000a900473ffffffffffffffffffffffffffffffffffffffff169050600073ffffffffffffffffffffffffffffffffffffffff168173ffffffffffffffffffffffffffffffffffffffff161415610828576040517f08c379a000000000000000000000000000000000000000000000000000000000815260040161081f90612234565b60405180910390fd5b80915050919050565b60008073ffffffffffffffffffffffffffffffffffffffff168273ffffffffffffffffffffffffffffffffffffffff1614156108a2576040517f08c379a000000000000000000000000000000000000000000000000000000000815260040161089990612214565b60405180910390fd5b600360008373ffffffffffffffffffffffffffffffffffffffff1673ffffffffffffffffffffffffffffffffffffffff168152602001908152602001600020549050919050565b6108f161114e565b73ffffffffffffffffffffffffffffffffffffffff1661090f610a26565b73ffffffffffffffffffffffffffffffffffffffff1614610965576040517f08c379a000000000000000000000000000000000000000000000000000000000815260040161095c90612274565b60405180910390fd5b600073ffffffffffffffffffffffffffffffffffffffff16600660009054906101000a900473ffffffffffffffffffffffffffffffffffffffff1673ffffffffffffffffffffffffffffffffffffffff167f8be0079c531659141344cd1fd0a4f28419497f9722a3daafe3b4186f6b6457e060405160405180910390a36000600660006101000a81548173ffffffffffffffffffffffffffffffffffffffff021916908373ffffffffffffffffffffffffffffffffffffffff160217905550565b6000600660009054906101000a900473ffffffffffffffffffffffffffffffffffffffff16905090565b606060018054610a5f9061256a565b80601f0160208091040260200160405190810160405280929190818152602001828054610a8b9061256a565b8015610ad85780601f10610aad57610100808354040283529160200191610ad8565b820191906000526020600020905b815481529060010190602001808311610abb57829003601f168201915b5050505050905090565b610aea61114e565b73ffffffffffffffffffffffffffffffffffffffff168273ffffffffffffffffffffffffffffffffffffffff161415610b58576040517f08c379a0000000000000000000000000000000000000000000000000000000008152600401610b4f906121b4565b60405180910390fd5b8060056000610b6561114e565b73ffffffffffffffffffffffffffffffffffffffff1673ffffffffffffffffffffffffffffffffffffffff16815260200190815260200160002060008473ffffffffffffffffffffffffffffffffffffffff1673ffffffffffffffffffffffffffffffffffffffff16815260200190815260200160002060006101000a81548160ff0219169083151502179055508173ffffffffffffffffffffffffffffffffffffffff16610c1261114e565b73ffffffffffffffffffffffffffffffffffffffff167f17307eab39ab6107e8899845ad3d59bd9653f200f220920489ca2b5937696c3183604051610c579190612117565b60405180910390a35050565b610c74610c6e61114e565b8361120f565b610cb3576040517f08c379a0000000000000000000000000000000000000000000000000000000008152600401610caa906122f4565b60405180910390fd5b610cbf84848484611549565b50505050565b6060610cd0826110e2565b610d0f576040517f08c379a0000000000000000000000000000000000000000000000000000000008152600401610d06906122b4565b60405180910390fd5b6000600760008481526020019081526020016000208054610d2f9061256a565b80601f0160208091040260200160405190810160405280929190818152602001828054610d5b9061256a565b8015610da85780601f10610d7d57610100808354040283529160200191610da8565b820191906000526020600020905b815481529060010190602001808311610d8b57829003601f168201915b505050505090506000610db96115a5565b9050600081511415610dcf578192505050610e33565b600082511115610e04578082604051602001610dec92919061208c565b60405160208183030381529060405292505050610e33565b80610e0e85611637565b604051602001610e1f92919061208c565b604051602081830303815290604052925050505b919050565b6000600560008473ffffffffffffffffffffffffffffffffffffffff1673ffffffffffffffffffffffffffffffffffffffff16815260200190815260200160002060008373ffffffffffffffffffffffffffffffffffffffff1673ffffffffffffffffffffffffffffffffffffffff16815260200190815260200160002060009054906101000a900460ff16905092915050565b610ed461114e565b73ffffffffffffffffffffffffffffffffffffffff16610ef2610a26565b73ffffffffffffffffffffffffffffffffffffffff1614610f48576040517f08c379a0000000000000000000000000000000000000000000000000000000008152600401610f3f90612274565b60405180910390fd5b600073ffffffffffffffffffffffffffffffffffffffff168173ffffffffffffffffffffffffffffffffffffffff161415610fb8576040517f08c379a0000000000000000000000000000000000000000000000000000000008152600401610faf90612174565b60405180910390fd5b8073ffffffffffffffffffffffffffffffffffffffff16600660009054906101000a900473ffffffffffffffffffffffffffffffffffffffff1673ffffffffffffffffffffffffffffffffffffffff167f8be0079c531659141344cd1fd0a4f28419497f9722a3daafe3b4186f6b6457e060405160405180910390a380600660006101000a81548173ffffffffffffffffffffffffffffffffffffffff021916908373ffffffffffffffffffffffffffffffffffffffff16021790555050565b60007f01ffc9a7000000000000000000000000000000000000000000000000000000007bffffffffffffffffffffffffffffffffffffffffffffffffffffffff1916827bffffffffffffffffffffffffffffffffffffffffffffffffffffffff1916149050919050565b60008073ffffffffffffffffffffffffffffffffffffffff166002600084815260200190815260200160002060009054906101000a900473ffffffffffffffffffffffffffffffffffffffff1673ffffffffffffffffffffffffffffffffffffffff1614159050919050565b600033905090565b816004600083815260200190815260200160002060006101000a81548173ffffffffffffffffffffffffffffffffffffffff021916908373ffffffffffffffffffffffffffffffffffffffff160217905550808273ffffffffffffffffffffffffffffffffffffffff166111c98361077f565b73ffffffffffffffffffffffffffffffffffffffff167f8c5be1e5ebec7d5bd14f71427d1e84f3dd0314c0f7b2291e5b200ac8c7c3b92560405160405180910390a45050565b600061121a826110e2565b611259576040517f08c379a0000000000000000000000000000000000000000000000000000000008152600401611250906121d4565b60405180910390fd5b60006112648361077f565b90508073ffffffffffffffffffffffffffffffffffffffff168473ffffffffffffffffffffffffffffffffffffffff1614806112d357508373ffffffffffffffffffffffffffffffffffffffff166112bb846104cc565b73ffffffffffffffffffffffffffffffffffffffff16145b806112e457506112e38185610e38565b5b91505092915050565b8273ffffffffffffffffffffffffffffffffffffffff1661130d8261077f565b73ffffffffffffffffffffffffffffffffffffffff1614611363576040517f08c379a000000000000000000000000000000000000000000000000000000000815260040161135a90612294565b60405180910390fd5b600073ffffffffffffffffffffffffffffffffffffffff168273ffffffffffffffffffffffffffffffffffffffff1614156113d3576040517f08c379a00000000000000000000000000000000000000000000000000000000081526004016113ca90612194565b60405180910390fd5b6113de8383836117e4565b6113e9600082611156565b6001600360008573ffffffffffffffffffffffffffffffffffffffff1673ffffffffffffffffffffffffffffffffffffffff16815260200190815260200160002060008282546114399190612480565b925050819055506001600360008473ffffffffffffffffffffffffffffffffffffffff1673ffffffffffffffffffffffffffffffffffffffff168152602001908152602001600020600082825461149091906123f9565b92505081905550816002600083815260200190815260200160002060006101000a81548173ffffffffffffffffffffffffffffffffffffffff021916908373ffffffffffffffffffffffffffffffffffffffff160217905550808273ffffffffffffffffffffffffffffffffffffffff168473ffffffffffffffffffffffffffffffffffffffff167fddf252ad1be2c89b69c2b068fc378daa952ba7f163c4a11628f55a4df523b3ef60405160405180910390a4505050565b6115548484846112ed565b611560848484846117e9565b61159f576040517f08c379a000000000000000000000000000000000000000000000000000000000815260040161159690612154565b60405180910390fd5b50505050565b6060600880546115b49061256a565b80601f01602080910402602001604051908101604052809291908181526020018280546115e09061256a565b801561162d5780601f106116025761010080835404028352916020019161162d565b820191906000526020600020905b81548152906001019060200180831161161057829003601f168201915b5050505050905090565b6060600082141561167f576040518060400160405280600181526020017f300000000000000000000000000000000000000000000000000000000000000081525090506117df565b600082905060005b600082146116b157808061169a906125cd565b915050600a826116aa919061244f565b9150611687565b60008167ffffffffffffffff8111156116f3577f4e487b7100000000000000000000000000000000000000000000000000000000600052604160045260246000fd5b6040519080825280601f01601f1916602001820160405280156117255781602001600182028036833780820191505090505b5090505b600085146117d85760018261173e9190612480565b9150600a8561174d9190612616565b603061175991906123f9565b60f81b818381518110611795577f4e487b7100000000000000000000000000000000000000000000000000000000600052603260045260246000fd5b60200101907effffffffffffffffffffffffffffffffffffffffffffffffffffffffffffff1916908160001a905350600a856117d1919061244f565b9450611729565b8093505050505b919050565b505050565b600061180a8473ffffffffffffffffffffffffffffffffffffffff16611980565b15611973578373ffffffffffffffffffffffffffffffffffffffff1663150b7a0261183361114e565b8786866040518563ffffffff1660e01b815260040161185594939291906120cb565b602060405180830381600087803b15801561186f57600080fd5b505af19250505080156118a057506040513d601f19601f8201168201806040525081019061189d9190611d3f565b60015b611923573d80600081146118d0576040519150601f19603f3d011682016040523d82523d6000602084013e6118d5565b606091505b5060008151141561191b576040517f08c379a000000000000000000000000000000000000000000000000000000000815260040161191290612154565b60405180910390fd5b805181602001fd5b63150b7a0260e01b7bffffffffffffffffffffffffffffffffffffffffffffffffffffffff1916817bffffffffffffffffffffffffffffffffffffffffffffffffffffffff191614915050611978565b600190505b949350505050565b600080823b905060008111915050919050565b82805461199f9061256a565b90600052602060002090601f0160209004810192826119c15760008555611a08565b82601f106119da57805160ff1916838001178555611a08565b82800160010185558215611a08579182015b82811115611a075782518255916020019190600101906119ec565b5b509050611a159190611a19565b5090565b5b80821115611a32576000816000905550600101611a1a565b5090565b6000611a49611a4484612354565b61232f565b905082815260208101848484011115611a6157600080fd5b611a6c848285612528565b509392505050565b6000611a87611a8284612385565b61232f565b905082815260208101848484011115611a9f57600080fd5b611aaa848285612528565b509392505050565b600081359050611ac181612b1a565b92915050565b600081359050611ad681612b31565b92915050565b600081359050611aeb81612b48565b92915050565b600081519050611b0081612b48565b92915050565b600082601f830112611b1757600080fd5b8135611b27848260208601611a36565b91505092915050565b600082601f830112611b4157600080fd5b8135611b51848260208601611a74565b91505092915050565b600081359050611b6981612b5f565b92915050565b600060208284031215611b8157600080fd5b6000611b8f84828501611ab2565b91505092915050565b60008060408385031215611bab57600080fd5b6000611bb985828601611ab2565b9250506020611bca85828601611ab2565b9150509250929050565b600080600060608486031215611be957600080fd5b6000611bf786828701611ab2565b9350506020611c0886828701611ab2565b9250506040611c1986828701611b5a565b9150509250925092565b60008060008060808587031215611c3957600080fd5b6000611c4787828801611ab2565b9450506020611c5887828801611ab2565b9350506040611c6987828801611b5a565b925050606085013567ffffffffffffffff811115611c8657600080fd5b611c9287828801611b06565b91505092959194509250565b60008060408385031215611cb157600080fd5b6000611cbf85828601611ab2565b9250506020611cd085828601611ac7565b9150509250929050565b60008060408385031215611ced57600080fd5b6000611cfb85828601611ab2565b9250506020611d0c85828601611b5a565b9150509250929050565b600060208284031215611d2857600080fd5b6000611d3684828501611adc565b91505092915050565b600060208284031215611d5157600080fd5b6000611d5f84828501611af1565b91505092915050565b600060208284031215611d7a57600080fd5b600082013567ffffffffffffffff811115611d9457600080fd5b611da084828501611b30565b91505092915050565b600060208284031215611dbb57600080fd5b6000611dc984828501611b5a565b91505092915050565b611ddb816124b4565b82525050565b611dea816124c6565b82525050565b6000611dfb826123b6565b611e0581856123cc565b9350611e15818560208601612537565b611e1e81612703565b840191505092915050565b6000611e34826123c1565b611e3e81856123dd565b9350611e4e818560208601612537565b611e5781612703565b840191505092915050565b6000611e6d826123c1565b611e7781856123ee565b9350611e87818560208601612537565b80840191505092915050565b6000611ea06032836123dd565b9150611eab82612714565b604082019050919050565b6000611ec36026836123dd565b9150611ece82612763565b604082019050919050565b6000611ee66024836123dd565b9150611ef1826127b2565b604082019050919050565b6000611f096019836123dd565b9150611f1482612801565b602082019050919050565b6000611f2c602c836123dd565b9150611f378261282a565b604082019050919050565b6000611f4f6038836123dd565b9150611f5a82612879565b604082019050919050565b6000611f72602a836123dd565b9150611f7d826128c8565b604082019050919050565b6000611f956029836123dd565b9150611fa082612917565b604082019050919050565b6000611fb8602c836123dd565b9150611fc382612966565b604082019050919050565b6000611fdb6020836123dd565b9150611fe6826129b5565b602082019050919050565b6000611ffe6029836123dd565b9150612009826129de565b604082019050919050565b6000612021602f836123dd565b915061202c82612a2d565b604082019050919050565b60006120446021836123dd565b915061204f82612a7c565b604082019050919050565b60006120676031836123dd565b915061207282612acb565b604082019050919050565b6120868161251e565b82525050565b60006120988285611e62565b91506120a48284611e62565b91508190509392505050565b60006020820190506120c56000830184611dd2565b92915050565b60006080820190506120e06000830187611dd2565b6120ed6020830186611dd2565b6120fa604083018561207d565b818103606083015261210c8184611df0565b905095945050505050565b600060208201905061212c6000830184611de1565b92915050565b6000602082019050818103600083015261214c8184611e29565b905092915050565b6000602082019050818103600083015261216d81611e93565b9050919050565b6000602082019050818103600083015261218d81611eb6565b9050919050565b600060208201905081810360008301526121ad81611ed9565b9050919050565b600060208201905081810360008301526121cd81611efc565b9050919050565b600060208201905081810360008301526121ed81611f1f565b9050919050565b6000602082019050818103600083015261220d81611f42565b9050919050565b6000602082019050818103600083015261222d81611f65565b9050919050565b6000602082019050818103600083015261224d81611f88565b9050919050565b6000602082019050818103600083015261226d81611fab565b9050919050565b6000602082019050818103600083015261228d81611fce565b9050919050565b600060208201905081810360008301526122ad81611ff1565b9050919050565b600060208201905081810360008301526122cd81612014565b9050919050565b600060208201905081810360008301526122ed81612037565b9050919050565b6000602082019050818103600083015261230d8161205a565b9050919050565b6000602082019050612329600083018461207d565b92915050565b600061233961234a565b9050612345828261259c565b919050565b6000604051905090565b600067ffffffffffffffff82111561236f5761236e6126d4565b5b61237882612703565b9050602081019050919050565b600067ffffffffffffffff8211156123a05761239f6126d4565b5b6123a982612703565b9050602081019050919050565b600081519050919050565b600081519050919050565b600082825260208201905092915050565b600082825260208201905092915050565b600081905092915050565b60006124048261251e565b915061240f8361251e565b9250827fffffffffffffffffffffffffffffffffffffffffffffffffffffffffffffffff0382111561244457612443612647565b5b828201905092915050565b600061245a8261251e565b91506124658361251e565b92508261247557612474612676565b5b828204905092915050565b600061248b8261251e565b91506124968361251e565b9250828210156124a9576124a8612647565b5b828203905092915050565b60006124bf826124fe565b9050919050565b60008115159050919050565b60007fffffffff0000000000000000000000000000000000000000000000000000000082169050919050565b600073ffffffffffffffffffffffffffffffffffffffff82169050919050565b6000819050919050565b82818337600083830152505050565b60005b8381101561255557808201518184015260208101905061253a565b83811115612564576000848401525b50505050565b6000600282049050600182168061258257607f821691505b60208210811415612596576125956126a5565b5b50919050565b6125a582612703565b810181811067ffffffffffffffff821117156125c4576125c36126d4565b5b80604052505050565b60006125d88261251e565b91507fffffffffffffffffffffffffffffffffffffffffffffffffffffffffffffffff82141561260b5761260a612647565b5b600182019050919050565b60006126218261251e565b915061262c8361251e565b92508261263c5761263b612676565b5b828206905092915050565b7f4e487b7100000000000000000000000000000000000000000000000000000000600052601160045260246000fd5b7f4e487b7100000000000000000000000000000000000000000000000000000000600052601260045260246000fd5b7f4e487b7100000000000000000000000000000000000000000000000000000000600052602260045260246000fd5b7f4e487b7100000000000000000000000000000000000000000000000000000000600052604160045260246000fd5b6000601f19601f8301169050919050565b7f4552433732313a207472616e7366657220746f206e6f6e20455243373231526560008201527f63656976657220696d706c656d656e7465720000000000000000000000000000602082015250565b7f4f776e61626c653a206e6577206f776e657220697320746865207a65726f206160008201527f6464726573730000000000000000000000000000000000000000000000000000602082015250565b7f4552433732313a207472616e7366657220746f20746865207a65726f2061646460008201527f7265737300000000000000000000000000000000000000000000000000000000602082015250565b7f4552433732313a20617070726f766520746f2063616c6c657200000000000000600082015250565b7f4552433732313a206f70657261746f7220717565727920666f72206e6f6e657860008201527f697374656e7420746f6b656e0000000000000000000000000000000000000000602082015250565b7f4552433732313a20617070726f76652063616c6c6572206973206e6f74206f7760008201527f6e6572206e6f7220617070726f76656420666f7220616c6c0000000000000000602082015250565b7f4552433732313a2062616c616e636520717565727920666f7220746865207a6560008201527f726f206164647265737300000000000000000000000000000000000000000000602082015250565b7f4552433732313a206f776e657220717565727920666f72206e6f6e657869737460008201527f656e7420746f6b656e0000000000000000000000000000000000000000000000602082015250565b7f4552433732313a20617070726f76656420717565727920666f72206e6f6e657860008201527f697374656e7420746f6b656e0000000000000000000000000000000000000000602082015250565b7f4f776e61626c653a2063616c6c6572206973206e6f7420746865206f776e6572600082015250565b7f4552433732313a207472616e73666572206f6620746f6b656e2074686174206960008201527f73206e6f74206f776e0000000000000000000000000000000000000000000000602082015250565b7f4552433732314d657461646174613a2055524920717565727920666f72206e6f60008201527f6e6578697374656e7420746f6b656e0000000000000000000000000000000000602082015250565b7f4552433732313a20617070726f76616c20746f2063757272656e74206f776e6560008201527f7200000000000000000000000000000000000000000000000000000000000000602082015250565b7f4552433732313a207472616e736665722063616c6c6572206973206e6f74206f60008201527f776e6572206e6f7220617070726f766564000000000000000000000000000000602082015250565b612b23816124b4565b8114612b2e57600080fd5b50565b612b3a816124c6565b8114612b4557600080fd5b50565b612b51816124d2565b8114612b5c57600080fd5b50565b612b688161251e565b8114612b7357600080fd5b5056fea2646970667358221220a0a2cb16c080186fdd2bfbda5a7209c1810b3dd0fb5ffdd6bfc1d675527ad40d64736f6c63430008010033",
  "immutableReferences": {},
  "source": "pragma solidity ^0.8.1;\n\nimport \"@openzeppelin/contracts/access/Ownable.sol\";\nimport \"@openzeppelin/contracts/token/ERC721/ERC721.sol\";\n\ncontract BaseERC721 is ERC721, Ownable {\n\n    using Strings for uint256;\n\n    mapping (uint256 => string) private _tokenURIs;\n    string private _baseURIextended;\n\n    constructor(string memory _name, string memory _symbol) ERC721(_name, _symbol)\n    {}\n\n    function createToken( address _to, uint256 _tokenId, string memory tokenURI_) internal onlyOwner() {\n        _mint(_to, _tokenId);\n        _setTokenURI(_tokenId, tokenURI_);\n    }\n\n    function setBaseURI(string memory baseURI_) external onlyOwner() {\n        _baseURIextended = baseURI_;\n    }\n\n    function _setTokenURI(uint256 tokenId, string memory _tokenURI) internal virtual {\n        require(_exists(tokenId), \"ERC721Metadata: URI set of nonexistent token\");\n        _tokenURIs[tokenId] = _tokenURI;\n    }\n\n    function _baseURI() internal view virtual override returns (string memory) {\n        return _baseURIextended;\n    }\n\n    function tokenURI(uint256 tokenId) public view virtual override returns (string memory) {\n        require(_exists(tokenId), \"ERC721Metadata: URI query for nonexistent token\");\n\n        string memory _tokenURI = _tokenURIs[tokenId];\n        string memory base = _baseURI();\n\n        if (bytes(base).length == 0) {\n            return _tokenURI;\n        }\n\n        if (bytes(_tokenURI).length > 0) {\n            return string(abi.encodePacked(base, _tokenURI));\n        }\n\n        return string(abi.encodePacked(base, tokenId.toString()));\n    }\n}\n",
  "sourcePath": "/home/wcode/Projects/university/ethereum/soccer-players-token/contracts/BaseERC721.sol",
  "compiler": {
    "name": "solc",
    "version": "0.8.1+commit.df193b15.Emscripten.clang"
  },
  "schemaVersion": "3.3.4",
  "updatedAt": "2021-03-24T00:58:36.122Z",
  "devdoc": {
    "kind": "dev",
    "methods": {
      "approve(address,uint256)": {
        "details": "See {IERC721-approve}."
      },
      "balanceOf(address)": {
        "details": "See {IERC721-balanceOf}."
      },
      "getApproved(uint256)": {
        "details": "See {IERC721-getApproved}."
      },
      "isApprovedForAll(address,address)": {
        "details": "See {IERC721-isApprovedForAll}."
      },
      "name()": {
        "details": "See {IERC721Metadata-name}."
      },
      "owner()": {
        "details": "Returns the address of the current owner."
      },
      "ownerOf(uint256)": {
        "details": "See {IERC721-ownerOf}."
      },
      "renounceOwnership()": {
        "details": "Leaves the contract without owner. It will not be possible to call `onlyOwner` functions anymore. Can only be called by the current owner. NOTE: Renouncing ownership will leave the contract without an owner, thereby removing any functionality that is only available to the owner."
      },
      "safeTransferFrom(address,address,uint256)": {
        "details": "See {IERC721-safeTransferFrom}."
      },
      "safeTransferFrom(address,address,uint256,bytes)": {
        "details": "See {IERC721-safeTransferFrom}."
      },
      "setApprovalForAll(address,bool)": {
        "details": "See {IERC721-setApprovalForAll}."
      },
      "supportsInterface(bytes4)": {
        "details": "See {IERC165-supportsInterface}."
      },
      "symbol()": {
        "details": "See {IERC721Metadata-symbol}."
      },
      "tokenURI(uint256)": {
        "details": "See {IERC721Metadata-tokenURI}."
      },
      "transferFrom(address,address,uint256)": {
        "details": "See {IERC721-transferFrom}."
      },
      "transferOwnership(address)": {
        "details": "Transfers ownership of the contract to a new account (`newOwner`). Can only be called by the current owner."
      }
    },
    "version": 1
  },
  "userdoc": {
    "kind": "user",
    "methods": {},
    "version": 1
  }
}