{
  "contractName": "SoccerPlayers",
  "abi": [
    {
      "inputs": [],
      "stateMutability": "nonpayable",
      "type": "constructor"
    },
    {
      "anonymous": false,
      "inputs": [
        {
          "indexed": true,
          "internalType": "address",
          "name": "owner",
          "type": "address"
        },
        {
          "indexed": true,
          "internalType": "address",
          "name": "approved",
          "type": "address"
        },
        {
          "indexed": true,
          "internalType": "uint256",
          "name": "tokenId",
          "type": "uint256"
        }
      ],
      "name": "Approval",
      "type": "event"
    },
    {
      "anonymous": false,
      "inputs": [
        {
          "indexed": true,
          "internalType": "address",
          "name": "owner",
          "type": "address"
        },
        {
          "indexed": true,
          "internalType": "address",
          "name": "operator",
          "type": "address"
        },
        {
          "indexed": false,
          "internalType": "bool",
          "name": "approved",
          "type": "bool"
        }
      ],
      "name": "ApprovalForAll",
      "type": "event"
    },
    {
      "anonymous": false,
      "inputs": [
        {
          "indexed": false,
          "internalType": "address",
          "name": "owner",
          "type": "address"
        },
        {
          "indexed": false,
          "internalType": "uint256",
          "name": "playerId",
          "type": "uint256"
        },
        {
          "indexed": false,
          "internalType": "string",
          "name": "full_name",
          "type": "string"
        },
        {
          "indexed": false,
          "internalType": "string",
          "name": "tokenURI",
          "type": "string"
        }
      ],
      "name": "Log",
      "type": "event"
    },
    {
      "anonymous": false,
      "inputs": [
        {
          "indexed": true,
          "internalType": "address",
          "name": "previousOwner",
          "type": "address"
        },
        {
          "indexed": true,
          "internalType": "address",
          "name": "newOwner",
          "type": "address"
        }
      ],
      "name": "OwnershipTransferred",
      "type": "event"
    },
    {
      "anonymous": false,
      "inputs": [
        {
          "indexed": true,
          "internalType": "address",
          "name": "from",
          "type": "address"
        },
        {
          "indexed": true,
          "internalType": "address",
          "name": "to",
          "type": "address"
        },
        {
          "indexed": true,
          "internalType": "uint256",
          "name": "tokenId",
          "type": "uint256"
        }
      ],
      "name": "Transfer",
      "type": "event"
    },
    {
      "inputs": [
        {
          "internalType": "address",
          "name": "to",
          "type": "address"
        },
        {
          "internalType": "uint256",
          "name": "tokenId",
          "type": "uint256"
        }
      ],
      "name": "approve",
      "outputs": [],
      "stateMutability": "nonpayable",
      "type": "function"
    },
    {
      "inputs": [
        {
          "internalType": "address",
          "name": "owner",
          "type": "address"
        }
      ],
      "name": "balanceOf",
      "outputs": [
        {
          "internalType": "uint256",
          "name": "",
          "type": "uint256"
        }
      ],
      "stateMutability": "view",
      "type": "function"
    },
    {
      "inputs": [
        {
          "internalType": "uint256",
          "name": "tokenId",
          "type": "uint256"
        }
      ],
      "name": "getApproved",
      "outputs": [
        {
          "internalType": "address",
          "name": "",
          "type": "address"
        }
      ],
      "stateMutability": "view",
      "type": "function"
    },
    {
      "inputs": [
        {
          "internalType": "address",
          "name": "owner",
          "type": "address"
        },
        {
          "internalType": "address",
          "name": "operator",
          "type": "address"
        }
      ],
      "name": "isApprovedForAll",
      "outputs": [
        {
          "internalType": "bool",
          "name": "",
          "type": "bool"
        }
      ],
      "stateMutability": "view",
      "type": "function"
    },
    {
      "inputs": [],
      "name": "name",
      "outputs": [
        {
          "internalType": "string",
          "name": "",
          "type": "string"
        }
      ],
      "stateMutability": "view",
      "type": "function"
    },
    {
      "inputs": [],
      "name": "owner",
      "outputs": [
        {
          "internalType": "address",
          "name": "",
          "type": "address"
        }
      ],
      "stateMutability": "view",
      "type": "function"
    },
    {
      "inputs": [
        {
          "internalType": "uint256",
          "name": "tokenId",
          "type": "uint256"
        }
      ],
      "name": "ownerOf",
      "outputs": [
        {
          "internalType": "address",
          "name": "",
          "type": "address"
        }
      ],
      "stateMutability": "view",
      "type": "function"
    },
    {
      "inputs": [],
      "name": "renounceOwnership",
      "outputs": [],
      "stateMutability": "nonpayable",
      "type": "function"
    },
    {
      "inputs": [
        {
          "internalType": "address",
          "name": "from",
          "type": "address"
        },
        {
          "internalType": "address",
          "name": "to",
          "type": "address"
        },
        {
          "internalType": "uint256",
          "name": "tokenId",
          "type": "uint256"
        }
      ],
      "name": "safeTransferFrom",
      "outputs": [],
      "stateMutability": "nonpayable",
      "type": "function"
    },
    {
      "inputs": [
        {
          "internalType": "address",
          "name": "from",
          "type": "address"
        },
        {
          "internalType": "address",
          "name": "to",
          "type": "address"
        },
        {
          "internalType": "uint256",
          "name": "tokenId",
          "type": "uint256"
        },
        {
          "internalType": "bytes",
          "name": "_data",
          "type": "bytes"
        }
      ],
      "name": "safeTransferFrom",
      "outputs": [],
      "stateMutability": "nonpayable",
      "type": "function"
    },
    {
      "inputs": [
        {
          "internalType": "address",
          "name": "operator",
          "type": "address"
        },
        {
          "internalType": "bool",
          "name": "approved",
          "type": "bool"
        }
      ],
      "name": "setApprovalForAll",
      "outputs": [],
      "stateMutability": "nonpayable",
      "type": "function"
    },
    {
      "inputs": [
        {
          "internalType": "string",
          "name": "baseURI_",
          "type": "string"
        }
      ],
      "name": "setBaseURI",
      "outputs": [],
      "stateMutability": "nonpayable",
      "type": "function"
    },
    {
      "inputs": [
        {
          "internalType": "bytes4",
          "name": "interfaceId",
          "type": "bytes4"
        }
      ],
      "name": "supportsInterface",
      "outputs": [
        {
          "internalType": "bool",
          "name": "",
          "type": "bool"
        }
      ],
      "stateMutability": "view",
      "type": "function"
    },
    {
      "inputs": [],
      "name": "symbol",
      "outputs": [
        {
          "internalType": "string",
          "name": "",
          "type": "string"
        }
      ],
      "stateMutability": "view",
      "type": "function"
    },
    {
      "inputs": [
        {
          "internalType": "uint256",
          "name": "tokenId",
          "type": "uint256"
        }
      ],
      "name": "tokenURI",
      "outputs": [
        {
          "internalType": "string",
          "name": "",
          "type": "string"
        }
      ],
      "stateMutability": "view",
      "type": "function"
    },
    {
      "inputs": [
        {
          "internalType": "address",
          "name": "from",
          "type": "address"
        },
        {
          "internalType": "address",
          "name": "to",
          "type": "address"
        },
        {
          "internalType": "uint256",
          "name": "tokenId",
          "type": "uint256"
        }
      ],
      "name": "transferFrom",
      "outputs": [],
      "stateMutability": "nonpayable",
      "type": "function"
    },
    {
      "inputs": [
        {
          "internalType": "address",
          "name": "newOwner",
          "type": "address"
        }
      ],
      "name": "transferOwnership",
      "outputs": [],
      "stateMutability": "nonpayable",
      "type": "function"
    },
    {
      "inputs": [
        {
          "internalType": "uint256",
          "name": "playerId",
          "type": "uint256"
        },
        {
          "internalType": "string",
          "name": "_fullName",
          "type": "string"
        },
        {
          "internalType": "string",
          "name": "_tokenURI",
          "type": "string"
        }
      ],
      "name": "createPlayer",
      "outputs": [],
      "stateMutability": "nonpayable",
      "type": "function"
    },
    {
      "inputs": [
        {
          "internalType": "uint256",
          "name": "playerId",
          "type": "uint256"
        }
      ],
      "name": "getPlayerDetails",
      "outputs": [
        {
          "internalType": "string",
          "name": "",
          "type": "string"
        },
        {
          "internalType": "string",
          "name": "",
          "type": "string"
        }
      ],
      "stateMutability": "view",
      "type": "function"
    }
  ],
  "bytecode": "0x60806040523480156200001157600080fd5b506040518060400160405280600d81526020017f536f63636572506c6179657273000000000000000000000000000000000000008152506040518060400160405280600281526020017f5350000000000000000000000000000000000000000000000000000000000000815250818181600090805190602001906200009892919062000175565b508060019080519060200190620000b192919062000175565b5050506000620000c66200016d60201b60201c565b905080600660006101000a81548173ffffffffffffffffffffffffffffffffffffffff021916908373ffffffffffffffffffffffffffffffffffffffff1602179055508073ffffffffffffffffffffffffffffffffffffffff16600073ffffffffffffffffffffffffffffffffffffffff167f8be0079c531659141344cd1fd0a4f28419497f9722a3daafe3b4186f6b6457e060405160405180910390a35050506200028a565b600033905090565b828054620001839062000225565b90600052602060002090601f016020900481019282620001a75760008555620001f3565b82601f10620001c257805160ff1916838001178555620001f3565b82800160010185558215620001f3579182015b82811115620001f2578251825591602001919060010190620001d5565b5b50905062000202919062000206565b5090565b5b808211156200022157600081600090555060010162000207565b5090565b600060028204905060018216806200023e57607f821691505b602082108114156200025557620002546200025b565b5b50919050565b7f4e487b7100000000000000000000000000000000000000000000000000000000600052602260045260246000fd5b6132af806200029a6000396000f3fe608060405234801561001057600080fd5b50600436106101215760003560e01c8063715018a6116100ad578063b88d4fde11610071578063b88d4fde146102f2578063baa43e331461030e578063c87b56dd1461033f578063e985e9c51461036f578063f2fde38b1461039f57610121565b8063715018a614610274578063761d9e6a1461027e5780638da5cb5b1461029a57806395d89b41146102b8578063a22cb465146102d657610121565b806323b872dd116100f457806323b872dd146101c057806342842e0e146101dc57806355f804b3146101f85780636352211e1461021457806370a082311461024457610121565b806301ffc9a71461012657806306fdde0314610156578063081812fc14610174578063095ea7b3146101a4575b600080fd5b610140600480360381019061013b91906121a6565b6103bb565b60405161014d91906126e2565b60405180910390f35b61015e61049d565b60405161016b91906126fd565b60405180910390f35b61018e60048036038101906101899190612239565b61052f565b60405161019b9190612628565b60405180910390f35b6101be60048036038101906101b9919061216a565b6105b4565b005b6101da60048036038101906101d59190612064565b6106cc565b005b6101f660048036038101906101f19190612064565b61072c565b005b610212600480360381019061020d91906121f8565b61074c565b005b61022e60048036038101906102299190612239565b6107e2565b60405161023b9190612628565b60405180910390f35b61025e60048036038101906102599190611fff565b610894565b60405161026b9190612976565b60405180910390f35b61027c61094c565b005b61029860048036038101906102939190612262565b610a89565b005b6102a2610b28565b6040516102af9190612628565b60405180910390f35b6102c0610b52565b6040516102cd91906126fd565b60405180910390f35b6102f060048036038101906102eb919061212e565b610be4565b005b61030c600480360381019061030791906120b3565b610d65565b005b61032860048036038101906103239190612239565b610dc7565b60405161033692919061271f565b60405180910390f35b61035960048036038101906103549190612239565b610e7e565b60405161036691906126fd565b60405180910390f35b61038960048036038101906103849190612028565b610ff1565b60405161039691906126e2565b60405180910390f35b6103b960048036038101906103b49190611fff565b611085565b005b60007f80ac58cd000000000000000000000000000000000000000000000000000000007bffffffffffffffffffffffffffffffffffffffffffffffffffffffff1916827bffffffffffffffffffffffffffffffffffffffffffffffffffffffff1916148061048657507f5b5e139f000000000000000000000000000000000000000000000000000000007bffffffffffffffffffffffffffffffffffffffffffffffffffffffff1916827bffffffffffffffffffffffffffffffffffffffffffffffffffffffff1916145b80610496575061049582611231565b5b9050919050565b6060600080546104ac90612bcc565b80601f01602080910402602001604051908101604052809291908181526020018280546104d890612bcc565b80156105255780601f106104fa57610100808354040283529160200191610525565b820191906000526020600020905b81548152906001019060200180831161050857829003601f168201915b5050505050905090565b600061053a8261129b565b610579576040517f08c379a000000000000000000000000000000000000000000000000000000000815260040161057090612896565b60405180910390fd5b6004600083815260200190815260200160002060009054906101000a900473ffffffffffffffffffffffffffffffffffffffff169050919050565b60006105bf826107e2565b90508073ffffffffffffffffffffffffffffffffffffffff168373ffffffffffffffffffffffffffffffffffffffff161415610630576040517f08c379a000000000000000000000000000000000000000000000000000000000815260040161062790612936565b60405180910390fd5b8073ffffffffffffffffffffffffffffffffffffffff1661064f611307565b73ffffffffffffffffffffffffffffffffffffffff16148061067e575061067d81610678611307565b610ff1565b5b6106bd576040517f08c379a00000000000000000000000000000000000000000000000000000000081526004016106b490612816565b60405180910390fd5b6106c7838361130f565b505050565b6106dd6106d7611307565b826113c8565b61071c576040517f08c379a000000000000000000000000000000000000000000000000000000000815260040161071390612956565b60405180910390fd5b6107278383836114a6565b505050565b61074783838360405180602001604052806000815250610d65565b505050565b610754611307565b73ffffffffffffffffffffffffffffffffffffffff16610772610b28565b73ffffffffffffffffffffffffffffffffffffffff16146107c8576040517f08c379a00000000000000000000000000000000000000000000000000000000081526004016107bf906128d6565b60405180910390fd5b80600890805190602001906107de929190611e23565b5050565b6000806002600084815260200190815260200160002060009054906101000a900473ffffffffffffffffffffffffffffffffffffffff169050600073ffffffffffffffffffffffffffffffffffffffff168173ffffffffffffffffffffffffffffffffffffffff16141561088b576040517f08c379a000000000000000000000000000000000000000000000000000000000815260040161088290612856565b60405180910390fd5b80915050919050565b60008073ffffffffffffffffffffffffffffffffffffffff168273ffffffffffffffffffffffffffffffffffffffff161415610905576040517f08c379a00000000000000000000000000000000000000000000000000000000081526004016108fc90612836565b60405180910390fd5b600360008373ffffffffffffffffffffffffffffffffffffffff1673ffffffffffffffffffffffffffffffffffffffff168152602001908152602001600020549050919050565b610954611307565b73ffffffffffffffffffffffffffffffffffffffff16610972610b28565b73ffffffffffffffffffffffffffffffffffffffff16146109c8576040517f08c379a00000000000000000000000000000000000000000000000000000000081526004016109bf906128d6565b60405180910390fd5b600073ffffffffffffffffffffffffffffffffffffffff16600660009054906101000a900473ffffffffffffffffffffffffffffffffffffffff1673ffffffffffffffffffffffffffffffffffffffff167f8be0079c531659141344cd1fd0a4f28419497f9722a3daafe3b4186f6b6457e060405160405180910390a36000600660006101000a81548173ffffffffffffffffffffffffffffffffffffffff021916908373ffffffffffffffffffffffffffffffffffffffff160217905550565b60405180604001604052808481526020018381525060096000858152602001908152602001600020600082015181600001556020820151816001019080519060200190610ad7929190611e23565b50905050610ae6338483611702565b7f55f87468d98fe426430db8f9596ba569ca54cb13d122164fcbcb82cfca302d3133848484604051610b1b949392919061268f565b60405180910390a1505050565b6000600660009054906101000a900473ffffffffffffffffffffffffffffffffffffffff16905090565b606060018054610b6190612bcc565b80601f0160208091040260200160405190810160405280929190818152602001828054610b8d90612bcc565b8015610bda5780601f10610baf57610100808354040283529160200191610bda565b820191906000526020600020905b815481529060010190602001808311610bbd57829003601f168201915b5050505050905090565b610bec611307565b73ffffffffffffffffffffffffffffffffffffffff168273ffffffffffffffffffffffffffffffffffffffff161415610c5a576040517f08c379a0000000000000000000000000000000000000000000000000000000008152600401610c51906127d6565b60405180910390fd5b8060056000610c67611307565b73ffffffffffffffffffffffffffffffffffffffff1673ffffffffffffffffffffffffffffffffffffffff16815260200190815260200160002060008473ffffffffffffffffffffffffffffffffffffffff1673ffffffffffffffffffffffffffffffffffffffff16815260200190815260200160002060006101000a81548160ff0219169083151502179055508173ffffffffffffffffffffffffffffffffffffffff16610d14611307565b73ffffffffffffffffffffffffffffffffffffffff167f17307eab39ab6107e8899845ad3d59bd9653f200f220920489ca2b5937696c3183604051610d5991906126e2565b60405180910390a35050565b610d76610d70611307565b836113c8565b610db5576040517f08c379a0000000000000000000000000000000000000000000000000000000008152600401610dac90612956565b60405180910390fd5b610dc184848484611797565b50505050565b60608060096000848152602001908152602001600020600101610de984610e7e565b818054610df590612bcc565b80601f0160208091040260200160405190810160405280929190818152602001828054610e2190612bcc565b8015610e6e5780601f10610e4357610100808354040283529160200191610e6e565b820191906000526020600020905b815481529060010190602001808311610e5157829003601f168201915b5050505050915091509150915091565b6060610e898261129b565b610ec8576040517f08c379a0000000000000000000000000000000000000000000000000000000008152600401610ebf90612916565b60405180910390fd5b6000600760008481526020019081526020016000208054610ee890612bcc565b80601f0160208091040260200160405190810160405280929190818152602001828054610f1490612bcc565b8015610f615780601f10610f3657610100808354040283529160200191610f61565b820191906000526020600020905b815481529060010190602001808311610f4457829003601f168201915b505050505090506000610f726117f3565b9050600081511415610f88578192505050610fec565b600082511115610fbd578082604051602001610fa5929190612604565b60405160208183030381529060405292505050610fec565b80610fc785611885565b604051602001610fd8929190612604565b604051602081830303815290604052925050505b919050565b6000600560008473ffffffffffffffffffffffffffffffffffffffff1673ffffffffffffffffffffffffffffffffffffffff16815260200190815260200160002060008373ffffffffffffffffffffffffffffffffffffffff1673ffffffffffffffffffffffffffffffffffffffff16815260200190815260200160002060009054906101000a900460ff16905092915050565b61108d611307565b73ffffffffffffffffffffffffffffffffffffffff166110ab610b28565b73ffffffffffffffffffffffffffffffffffffffff1614611101576040517f08c379a00000000000000000000000000000000000000000000000000000000081526004016110f8906128d6565b60405180910390fd5b600073ffffffffffffffffffffffffffffffffffffffff168173ffffffffffffffffffffffffffffffffffffffff161415611171576040517f08c379a000000000000000000000000000000000000000000000000000000000815260040161116890612776565b60405180910390fd5b8073ffffffffffffffffffffffffffffffffffffffff16600660009054906101000a900473ffffffffffffffffffffffffffffffffffffffff1673ffffffffffffffffffffffffffffffffffffffff167f8be0079c531659141344cd1fd0a4f28419497f9722a3daafe3b4186f6b6457e060405160405180910390a380600660006101000a81548173ffffffffffffffffffffffffffffffffffffffff021916908373ffffffffffffffffffffffffffffffffffffffff16021790555050565b60007f01ffc9a7000000000000000000000000000000000000000000000000000000007bffffffffffffffffffffffffffffffffffffffffffffffffffffffff1916827bffffffffffffffffffffffffffffffffffffffffffffffffffffffff1916149050919050565b60008073ffffffffffffffffffffffffffffffffffffffff166002600084815260200190815260200160002060009054906101000a900473ffffffffffffffffffffffffffffffffffffffff1673ffffffffffffffffffffffffffffffffffffffff1614159050919050565b600033905090565b816004600083815260200190815260200160002060006101000a81548173ffffffffffffffffffffffffffffffffffffffff021916908373ffffffffffffffffffffffffffffffffffffffff160217905550808273ffffffffffffffffffffffffffffffffffffffff16611382836107e2565b73ffffffffffffffffffffffffffffffffffffffff167f8c5be1e5ebec7d5bd14f71427d1e84f3dd0314c0f7b2291e5b200ac8c7c3b92560405160405180910390a45050565b60006113d38261129b565b611412576040517f08c379a0000000000000000000000000000000000000000000000000000000008152600401611409906127f6565b60405180910390fd5b600061141d836107e2565b90508073ffffffffffffffffffffffffffffffffffffffff168473ffffffffffffffffffffffffffffffffffffffff16148061148c57508373ffffffffffffffffffffffffffffffffffffffff166114748461052f565b73ffffffffffffffffffffffffffffffffffffffff16145b8061149d575061149c8185610ff1565b5b91505092915050565b8273ffffffffffffffffffffffffffffffffffffffff166114c6826107e2565b73ffffffffffffffffffffffffffffffffffffffff161461151c576040517f08c379a0000000000000000000000000000000000000000000000000000000008152600401611513906128f6565b60405180910390fd5b600073ffffffffffffffffffffffffffffffffffffffff168273ffffffffffffffffffffffffffffffffffffffff16141561158c576040517f08c379a0000000000000000000000000000000000000000000000000000000008152600401611583906127b6565b60405180910390fd5b611597838383611a32565b6115a260008261130f565b6001600360008573ffffffffffffffffffffffffffffffffffffffff1673ffffffffffffffffffffffffffffffffffffffff16815260200190815260200160002060008282546115f29190612ae2565b925050819055506001600360008473ffffffffffffffffffffffffffffffffffffffff1673ffffffffffffffffffffffffffffffffffffffff16815260200190815260200160002060008282546116499190612a5b565b92505081905550816002600083815260200190815260200160002060006101000a81548173ffffffffffffffffffffffffffffffffffffffff021916908373ffffffffffffffffffffffffffffffffffffffff160217905550808273ffffffffffffffffffffffffffffffffffffffff168473ffffffffffffffffffffffffffffffffffffffff167fddf252ad1be2c89b69c2b068fc378daa952ba7f163c4a11628f55a4df523b3ef60405160405180910390a4505050565b61170a611307565b73ffffffffffffffffffffffffffffffffffffffff16611728610b28565b73ffffffffffffffffffffffffffffffffffffffff161461177e576040517f08c379a0000000000000000000000000000000000000000000000000000000008152600401611775906128d6565b60405180910390fd5b6117888383611a37565b6117928282611c05565b505050565b6117a28484846114a6565b6117ae84848484611c79565b6117ed576040517f08c379a00000000000000000000000000000000000000000000000000000000081526004016117e490612756565b60405180910390fd5b50505050565b60606008805461180290612bcc565b80601f016020809104026020016040519081016040528092919081815260200182805461182e90612bcc565b801561187b5780601f106118505761010080835404028352916020019161187b565b820191906000526020600020905b81548152906001019060200180831161185e57829003601f168201915b5050505050905090565b606060008214156118cd576040518060400160405280600181526020017f30000000000000000000000000000000000000000000000000000000000000008152509050611a2d565b600082905060005b600082146118ff5780806118e890612c2f565b915050600a826118f89190612ab1565b91506118d5565b60008167ffffffffffffffff811115611941577f4e487b7100000000000000000000000000000000000000000000000000000000600052604160045260246000fd5b6040519080825280601f01601f1916602001820160405280156119735781602001600182028036833780820191505090505b5090505b60008514611a265760018261198c9190612ae2565b9150600a8561199b9190612c78565b60306119a79190612a5b565b60f81b8183815181106119e3577f4e487b7100000000000000000000000000000000000000000000000000000000600052603260045260246000fd5b60200101907effffffffffffffffffffffffffffffffffffffffffffffffffffffffffffff1916908160001a905350600a85611a1f9190612ab1565b9450611977565b8093505050505b919050565b505050565b600073ffffffffffffffffffffffffffffffffffffffff168273ffffffffffffffffffffffffffffffffffffffff161415611aa7576040517f08c379a0000000000000000000000000000000000000000000000000000000008152600401611a9e90612876565b60405180910390fd5b611ab08161129b565b15611af0576040517f08c379a0000000000000000000000000000000000000000000000000000000008152600401611ae790612796565b60405180910390fd5b611afc60008383611a32565b6001600360008473ffffffffffffffffffffffffffffffffffffffff1673ffffffffffffffffffffffffffffffffffffffff1681526020019081526020016000206000828254611b4c9190612a5b565b92505081905550816002600083815260200190815260200160002060006101000a81548173ffffffffffffffffffffffffffffffffffffffff021916908373ffffffffffffffffffffffffffffffffffffffff160217905550808273ffffffffffffffffffffffffffffffffffffffff16600073ffffffffffffffffffffffffffffffffffffffff167fddf252ad1be2c89b69c2b068fc378daa952ba7f163c4a11628f55a4df523b3ef60405160405180910390a45050565b611c0e8261129b565b611c4d576040517f08c379a0000000000000000000000000000000000000000000000000000000008152600401611c44906128b6565b60405180910390fd5b80600760008481526020019081526020016000209080519060200190611c74929190611e23565b505050565b6000611c9a8473ffffffffffffffffffffffffffffffffffffffff16611e10565b15611e03578373ffffffffffffffffffffffffffffffffffffffff1663150b7a02611cc3611307565b8786866040518563ffffffff1660e01b8152600401611ce59493929190612643565b602060405180830381600087803b158015611cff57600080fd5b505af1925050508015611d3057506040513d601f19601f82011682018060405250810190611d2d91906121cf565b60015b611db3573d8060008114611d60576040519150601f19603f3d011682016040523d82523d6000602084013e611d65565b606091505b50600081511415611dab576040517f08c379a0000000000000000000000000000000000000000000000000000000008152600401611da290612756565b60405180910390fd5b805181602001fd5b63150b7a0260e01b7bffffffffffffffffffffffffffffffffffffffffffffffffffffffff1916817bffffffffffffffffffffffffffffffffffffffffffffffffffffffff191614915050611e08565b600190505b949350505050565b600080823b905060008111915050919050565b828054611e2f90612bcc565b90600052602060002090601f016020900481019282611e515760008555611e98565b82601f10611e6a57805160ff1916838001178555611e98565b82800160010185558215611e98579182015b82811115611e97578251825591602001919060010190611e7c565b5b509050611ea59190611ea9565b5090565b5b80821115611ec2576000816000905550600101611eaa565b5090565b6000611ed9611ed4846129b6565b612991565b905082815260208101848484011115611ef157600080fd5b611efc848285612b8a565b509392505050565b6000611f17611f12846129e7565b612991565b905082815260208101848484011115611f2f57600080fd5b611f3a848285612b8a565b509392505050565b600081359050611f518161321d565b92915050565b600081359050611f6681613234565b92915050565b600081359050611f7b8161324b565b92915050565b600081519050611f908161324b565b92915050565b600082601f830112611fa757600080fd5b8135611fb7848260208601611ec6565b91505092915050565b600082601f830112611fd157600080fd5b8135611fe1848260208601611f04565b91505092915050565b600081359050611ff981613262565b92915050565b60006020828403121561201157600080fd5b600061201f84828501611f42565b91505092915050565b6000806040838503121561203b57600080fd5b600061204985828601611f42565b925050602061205a85828601611f42565b9150509250929050565b60008060006060848603121561207957600080fd5b600061208786828701611f42565b935050602061209886828701611f42565b92505060406120a986828701611fea565b9150509250925092565b600080600080608085870312156120c957600080fd5b60006120d787828801611f42565b94505060206120e887828801611f42565b93505060406120f987828801611fea565b925050606085013567ffffffffffffffff81111561211657600080fd5b61212287828801611f96565b91505092959194509250565b6000806040838503121561214157600080fd5b600061214f85828601611f42565b925050602061216085828601611f57565b9150509250929050565b6000806040838503121561217d57600080fd5b600061218b85828601611f42565b925050602061219c85828601611fea565b9150509250929050565b6000602082840312156121b857600080fd5b60006121c684828501611f6c565b91505092915050565b6000602082840312156121e157600080fd5b60006121ef84828501611f81565b91505092915050565b60006020828403121561220a57600080fd5b600082013567ffffffffffffffff81111561222457600080fd5b61223084828501611fc0565b91505092915050565b60006020828403121561224b57600080fd5b600061225984828501611fea565b91505092915050565b60008060006060848603121561227757600080fd5b600061228586828701611fea565b935050602084013567ffffffffffffffff8111156122a257600080fd5b6122ae86828701611fc0565b925050604084013567ffffffffffffffff8111156122cb57600080fd5b6122d786828701611fc0565b9150509250925092565b6122ea81612b16565b82525050565b6122f981612b28565b82525050565b600061230a82612a18565b6123148185612a2e565b9350612324818560208601612b99565b61232d81612d65565b840191505092915050565b600061234382612a23565b61234d8185612a3f565b935061235d818560208601612b99565b61236681612d65565b840191505092915050565b600061237c82612a23565b6123868185612a50565b9350612396818560208601612b99565b80840191505092915050565b60006123af603283612a3f565b91506123ba82612d76565b604082019050919050565b60006123d2602683612a3f565b91506123dd82612dc5565b604082019050919050565b60006123f5601c83612a3f565b915061240082612e14565b602082019050919050565b6000612418602483612a3f565b915061242382612e3d565b604082019050919050565b600061243b601983612a3f565b915061244682612e8c565b602082019050919050565b600061245e602c83612a3f565b915061246982612eb5565b604082019050919050565b6000612481603883612a3f565b915061248c82612f04565b604082019050919050565b60006124a4602a83612a3f565b91506124af82612f53565b604082019050919050565b60006124c7602983612a3f565b91506124d282612fa2565b604082019050919050565b60006124ea602083612a3f565b91506124f582612ff1565b602082019050919050565b600061250d602c83612a3f565b91506125188261301a565b604082019050919050565b6000612530602c83612a3f565b915061253b82613069565b604082019050919050565b6000612553602083612a3f565b915061255e826130b8565b602082019050919050565b6000612576602983612a3f565b9150612581826130e1565b604082019050919050565b6000612599602f83612a3f565b91506125a482613130565b604082019050919050565b60006125bc602183612a3f565b91506125c78261317f565b604082019050919050565b60006125df603183612a3f565b91506125ea826131ce565b604082019050919050565b6125fe81612b80565b82525050565b60006126108285612371565b915061261c8284612371565b91508190509392505050565b600060208201905061263d60008301846122e1565b92915050565b600060808201905061265860008301876122e1565b61266560208301866122e1565b61267260408301856125f5565b818103606083015261268481846122ff565b905095945050505050565b60006080820190506126a460008301876122e1565b6126b160208301866125f5565b81810360408301526126c38185612338565b905081810360608301526126d78184612338565b905095945050505050565b60006020820190506126f760008301846122f0565b92915050565b600060208201905081810360008301526127178184612338565b905092915050565b600060408201905081810360008301526127398185612338565b9050818103602083015261274d8184612338565b90509392505050565b6000602082019050818103600083015261276f816123a2565b9050919050565b6000602082019050818103600083015261278f816123c5565b9050919050565b600060208201905081810360008301526127af816123e8565b9050919050565b600060208201905081810360008301526127cf8161240b565b9050919050565b600060208201905081810360008301526127ef8161242e565b9050919050565b6000602082019050818103600083015261280f81612451565b9050919050565b6000602082019050818103600083015261282f81612474565b9050919050565b6000602082019050818103600083015261284f81612497565b9050919050565b6000602082019050818103600083015261286f816124ba565b9050919050565b6000602082019050818103600083015261288f816124dd565b9050919050565b600060208201905081810360008301526128af81612500565b9050919050565b600060208201905081810360008301526128cf81612523565b9050919050565b600060208201905081810360008301526128ef81612546565b9050919050565b6000602082019050818103600083015261290f81612569565b9050919050565b6000602082019050818103600083015261292f8161258c565b9050919050565b6000602082019050818103600083015261294f816125af565b9050919050565b6000602082019050818103600083015261296f816125d2565b9050919050565b600060208201905061298b60008301846125f5565b92915050565b600061299b6129ac565b90506129a78282612bfe565b919050565b6000604051905090565b600067ffffffffffffffff8211156129d1576129d0612d36565b5b6129da82612d65565b9050602081019050919050565b600067ffffffffffffffff821115612a0257612a01612d36565b5b612a0b82612d65565b9050602081019050919050565b600081519050919050565b600081519050919050565b600082825260208201905092915050565b600082825260208201905092915050565b600081905092915050565b6000612a6682612b80565b9150612a7183612b80565b9250827fffffffffffffffffffffffffffffffffffffffffffffffffffffffffffffffff03821115612aa657612aa5612ca9565b5b828201905092915050565b6000612abc82612b80565b9150612ac783612b80565b925082612ad757612ad6612cd8565b5b828204905092915050565b6000612aed82612b80565b9150612af883612b80565b925082821015612b0b57612b0a612ca9565b5b828203905092915050565b6000612b2182612b60565b9050919050565b60008115159050919050565b60007fffffffff0000000000000000000000000000000000000000000000000000000082169050919050565b600073ffffffffffffffffffffffffffffffffffffffff82169050919050565b6000819050919050565b82818337600083830152505050565b60005b83811015612bb7578082015181840152602081019050612b9c565b83811115612bc6576000848401525b50505050565b60006002820490506001821680612be457607f821691505b60208210811415612bf857612bf7612d07565b5b50919050565b612c0782612d65565b810181811067ffffffffffffffff82111715612c2657612c25612d36565b5b80604052505050565b6000612c3a82612b80565b91507fffffffffffffffffffffffffffffffffffffffffffffffffffffffffffffffff821415612c6d57612c6c612ca9565b5b600182019050919050565b6000612c8382612b80565b9150612c8e83612b80565b925082612c9e57612c9d612cd8565b5b828206905092915050565b7f4e487b7100000000000000000000000000000000000000000000000000000000600052601160045260246000fd5b7f4e487b7100000000000000000000000000000000000000000000000000000000600052601260045260246000fd5b7f4e487b7100000000000000000000000000000000000000000000000000000000600052602260045260246000fd5b7f4e487b7100000000000000000000000000000000000000000000000000000000600052604160045260246000fd5b6000601f19601f8301169050919050565b7f4552433732313a207472616e7366657220746f206e6f6e20455243373231526560008201527f63656976657220696d706c656d656e7465720000000000000000000000000000602082015250565b7f4f776e61626c653a206e6577206f776e657220697320746865207a65726f206160008201527f6464726573730000000000000000000000000000000000000000000000000000602082015250565b7f4552433732313a20746f6b656e20616c7265616479206d696e74656400000000600082015250565b7f4552433732313a207472616e7366657220746f20746865207a65726f2061646460008201527f7265737300000000000000000000000000000000000000000000000000000000602082015250565b7f4552433732313a20617070726f766520746f2063616c6c657200000000000000600082015250565b7f4552433732313a206f70657261746f7220717565727920666f72206e6f6e657860008201527f697374656e7420746f6b656e0000000000000000000000000000000000000000602082015250565b7f4552433732313a20617070726f76652063616c6c6572206973206e6f74206f7760008201527f6e6572206e6f7220617070726f76656420666f7220616c6c0000000000000000602082015250565b7f4552433732313a2062616c616e636520717565727920666f7220746865207a6560008201527f726f206164647265737300000000000000000000000000000000000000000000602082015250565b7f4552433732313a206f776e657220717565727920666f72206e6f6e657869737460008201527f656e7420746f6b656e0000000000000000000000000000000000000000000000602082015250565b7f4552433732313a206d696e7420746f20746865207a65726f2061646472657373600082015250565b7f4552433732313a20617070726f76656420717565727920666f72206e6f6e657860008201527f697374656e7420746f6b656e0000000000000000000000000000000000000000602082015250565b7f4552433732314d657461646174613a2055524920736574206f66206e6f6e657860008201527f697374656e7420746f6b656e0000000000000000000000000000000000000000602082015250565b7f4f776e61626c653a2063616c6c6572206973206e6f7420746865206f776e6572600082015250565b7f4552433732313a207472616e73666572206f6620746f6b656e2074686174206960008201527f73206e6f74206f776e0000000000000000000000000000000000000000000000602082015250565b7f4552433732314d657461646174613a2055524920717565727920666f72206e6f60008201527f6e6578697374656e7420746f6b656e0000000000000000000000000000000000602082015250565b7f4552433732313a20617070726f76616c20746f2063757272656e74206f776e6560008201527f7200000000000000000000000000000000000000000000000000000000000000602082015250565b7f4552433732313a207472616e736665722063616c6c6572206973206e6f74206f60008201527f776e6572206e6f7220617070726f766564000000000000000000000000000000602082015250565b61322681612b16565b811461323157600080fd5b50565b61323d81612b28565b811461324857600080fd5b50565b61325481612b34565b811461325f57600080fd5b50565b61326b81612b80565b811461327657600080fd5b5056fea2646970667358221220b2c1635c91227d95cfcbef76e87d1f89bc5d63420f0387672dc7d22fb840659e64736f6c63430008010033",
  "immutableReferences": {},
  "source": "pragma solidity ^0.8.1;\n\nimport \"./BaseERC721.sol\";\n\n\ncontract SoccerPlayers is BaseERC721{\n\n    struct Player{\n        uint256 playerId;\n        string full_name;\n    }\n\n    event Log(\n        address owner,\n        uint256 playerId,\n        string full_name,\n        string tokenURI\n    );\n\n    mapping (uint256 => Player) players;\n\n    constructor() BaseERC721(\"SoccerPlayers\", \"SP\")\n    {}\n\n    function createPlayer(uint256 playerId, string memory _fullName, string memory _tokenURI) public{\n        players[playerId] = Player({ playerId: playerId, full_name: _fullName});\n        super.createToken(msg.sender, playerId, _tokenURI);\n        emit Log(msg.sender, playerId, _fullName, _tokenURI);\n    }\n\n    function getPlayerDetails(uint256 playerId) external view returns (string memory, string memory) {\n        return (players[playerId].full_name, super.tokenURI(playerId));\n    }\n\n\n\n\n}\n",
  "sourcePath": "/home/wcode/Projects/university/ethereum/soccer-players-token/contracts/SoccerPlayers.sol",
  "compiler": {
    "name": "solc",
    "version": "0.8.1+commit.df193b15.Emscripten.clang"
  },
  "schemaVersion": "3.3.4",
  "updatedAt": "2021-03-24T00:58:36.132Z",
  "devdoc": {
    "kind": "dev",
    "methods": {
      "approve(address,uint256)": {
        "details": "See {IERC721-approve}."
      },
      "balanceOf(address)": {
        "details": "See {IERC721-balanceOf}."
      },
      "getApproved(uint256)": {
        "details": "See {IERC721-getApproved}."
      },
      "isApprovedForAll(address,address)": {
        "details": "See {IERC721-isApprovedForAll}."
      },
      "name()": {
        "details": "See {IERC721Metadata-name}."
      },
      "owner()": {
        "details": "Returns the address of the current owner."
      },
      "ownerOf(uint256)": {
        "details": "See {IERC721-ownerOf}."
      },
      "renounceOwnership()": {
        "details": "Leaves the contract without owner. It will not be possible to call `onlyOwner` functions anymore. Can only be called by the current owner. NOTE: Renouncing ownership will leave the contract without an owner, thereby removing any functionality that is only available to the owner."
      },
      "safeTransferFrom(address,address,uint256)": {
        "details": "See {IERC721-safeTransferFrom}."
      },
      "safeTransferFrom(address,address,uint256,bytes)": {
        "details": "See {IERC721-safeTransferFrom}."
      },
      "setApprovalForAll(address,bool)": {
        "details": "See {IERC721-setApprovalForAll}."
      },
      "supportsInterface(bytes4)": {
        "details": "See {IERC165-supportsInterface}."
      },
      "symbol()": {
        "details": "See {IERC721Metadata-symbol}."
      },
      "tokenURI(uint256)": {
        "details": "See {IERC721Metadata-tokenURI}."
      },
      "transferFrom(address,address,uint256)": {
        "details": "See {IERC721-transferFrom}."
      },
      "transferOwnership(address)": {
        "details": "Transfers ownership of the contract to a new account (`newOwner`). Can only be called by the current owner."
      }
    },
    "version": 1
  },
  "userdoc": {
    "kind": "user",
    "methods": {},
    "version": 1
  }
}